:02000002D0002C
:1040000000400D00CC960D00000006000C000501DC
:084010000401DC0500000000C2
:04401800388F0D00D0
:1040200009480A49884208B505D0094A824202D0A7
:10403000121A04F0ECFE0748074A0021121A04F095
:104040000CFF014808BD00BFCCE303203C960D00E7
:1040500034E4032038E40320F4E7032070B503F0D0
:1040600019FE074C074BE41AA40800251E46A5427A
:1040700004D056F8253098470135F8E770BD00BFE9
:1040800024960D00D4950D0000F0B8B808B500F0E6
:10409000BBF9BDE8084003F0BFBD01F041BB01F032
:1040A00047BB01F045BB0078B0FA80F0400970478B
:1040B000012303707047000010B5104C2DED028BEA
:1040C0009FED0F8AB6EE001AB0EE480AF7EE000A2E
:1040D0000021204600F0E4FC4FF47A7001F099FBD7
:1040E000B0EE481AF0EE480AB0EE480A2046002129
:1040F00000F0D6FCBDEC028B012010BD3CE4032097
:104100000000000010B5034B0360044600F0F8FE09
:10411000204610BD548F0D0010B50446FFF7F2FF86
:1041200020464FF4987103F08EFE204610BD00002B
:1041300008B52AB901210720BDE8084003F00BBEED
:104140000021072003F007FE014B01221A7008BD71
:1041500088E4032010B596B001F056FE234A0146CC
:104160000DA802F08FFA0DA801F0FEFE01F04CFE42
:104170001F4A01460DA802F085FA0DA801F0F4FED1
:1041800001F042FE1B4A01460DA802F07BFA0DA881
:1041900001F0EAFE0DA801F01CFD174903A801F08B
:1041A000C3FB03A908A801F0BFFB08A801F0FAFBB4
:1041B000044608A844B901F012FC16AA022322F80A
:1041C0004E0D0321009406E001F00BFC0023009348
:1041D0000246102307210DA801F0B4FC01F014FEE3
:1041E00000220DA901F07DFE16B010BD6CE4032085
:1041F0004CE40320A0E4032054E4032010B503F0B2
:104200004FFC204C4FF4165103F03EFC1E4800F0CA
:1042100049FD204600F0A4FB9FED1C1A2046F0EE5D
:10422000410AB0EE410A002100F03AFC00211320BF
:1042300003F080FD002309221549164801F0F0F92A
:10424000002309221449154801F0EAF9144A1549D6
:10425000154802F0A2FB0A21144802F0B5FBFFF753
:1042600079FF0121072003F065FD0221042003F0FE
:1042700061FD00230E4A80200021BDE8104001F0BE
:1042800087B900BF3CE403208CE403200000000059
:1042900080E403205C8F0D0078E40320618F0D0023
:1042A0006A8F0D00B9400D006F690D0020E70320F3
:1042B00031410D0038B5046805467CB16368013BA7
:1042C00063605BB9236820469B689847A368013BFD
:1042D000A3601BB923682046DB689847284638BD91
:1042E000F0B50E4691B000210446016041600BAD6F
:1042F000194606A8174601F017FB1699284601F043
:1043000013FB10AA3B7802F82C3D189B0293179BD5
:1043100001932046009506AB314602F0FFF8204697
:1043200011B0F0BD70B504460E46154600F000FF12
:1043300001223146204600F06FFE20463A2100F06F
:104340000DFE2A4620460249BDE8704000F056BEE8
:10435000B38F0D0030B52DED028BB0EE408AF0EE3C
:10436000608AD3B005460C464FF4807212A906A8A5
:1043700000F0E2FD1E4B06937D227B2106A800F093
:10438000FBFD2A4606A81B49FFF7CCFF22461A4927
:1043900006A8FFF7C7FF06A800F0CAFE012206A87C
:1043A000164900F039FE3A2106A800F0D7FDB0EE1C
:1043B000480AF0EE680A06A800F0C6FE06A800F05B
:1043C000ECFD079B03930E4B039A1B780D498DF868
:1043D000003004A83C2302F005FC05A8FFF76AFFA3
:1043E00006A8FFF78FFE53B0BDEC028B30BD00BFB7
:1043F000548F0D005C8F0D00618F0D00748F0D00C8
:1044000068E403207A8F0D0070B57B4A13788EB074
:104410009BB100231370794A116802910422ADF810
:104420001E2001228DE80C000DF11E010DF11D036F
:104430000AA88DF81D2003F0D9F9714C00F058FF3F
:104440002368C01A47F22F53984240F2C78000F009
:104450004FFF20606B486C4C6C4D00F00DFDBDEEC5
:10446000C00A684884ED000A00F028FDFDEEC07A1D
:104470002068C5ED007A17EE906A03F083FF644B65
:10448000C3E90001304603F07DFF624B624EC3E991
:10449000000103F005FB2368604A012102F0D1FF0F
:1044A00003F0FEFA2B685E4A012102F0CAFF1320D6
:1044B00003F06AFC03F066FF9FED493B9FED4A4B1A
:1044C000B0EE431AF0EE631A9FED492B41EC100B4E
:1044D00001F056F92968206886ED000BFFF73AFFD6
:1044E00096ED000B002251EC100B4E4B8DED040BA2
:1044F00004F03EFA9DED040B98B106210AA803F0E2
:1045000006F9494B0A9A1B788DF8003047493C233D
:1045100008A802F067FB09A8FFF7CCFE0AA803F081
:1045200071F801F071FC01F0F9FC002856D006206A
:1045300000F03AF90EA9002301F81C0D01223C48B5
:1045400001F0B0FB212000F02FF90EA9001201F8B4
:10455000180D00230122374801F0A4FB1A2000F0B7
:1045600023F90446192000F01FF90EA9001B41F899
:10457000100D00230422304801F094FB03F090FA60
:104580009DF81C302D4A012102F05BFF03F088FAF0
:104590002B4902F023FF03F083FA0A229DF8201032
:1045A000044602F02EFF204602F01FFF03F078FAC7
:1045B000244902F013FF03F073FA0A9C002C05460D
:1045C00004DA2D2102F00EFF614200E021460A22AA
:1045D000284602F016FF284602F007FF0EB070BD15
:1045E0000000000000000000000000000000594032
:1045F0000000000000FEAF4088E4032048E40320F0
:10460000ACE403208CE4032044E40320A8E403206A
:1046100080E4032078E40320B0E40320838F0D00BE
:104620008C8F0D000000494068E40320998F0D0035
:104630006CE403204CE40320A0E40320AB8F0D00C6
:10464000B68F0D00C18F0D002DE9F0473C4B3D4F5B
:104650003D4EDFF828A1DFF8288100241C603B4B89
:1046600090B001251D7000F04BFE06220221384853
:1046700000F012FB2B460E220F21384600F0B6F850
:10468000324634493846344F03F0D8FB2146284699
:1046900000F086FF3149384601F031FA0BAD4FF09A
:1046A00010092F498DF8149006A801F028FA394610
:1046B000284601F039F906AB05AA02940194009549
:1046C00028495046FFF70CFE32464146504603F05B
:1046D000B5FBDFF8B0A024498DF8149006A801F0CE
:1046E0000EFA3946284601F01FF906AB05AA0294D6
:1046F000019400951D495046FFF7F2FD32464146B0
:10470000504603F09BFB1A498DF8149006A801F05F
:10471000F6F93946174F284601F006F906AB05AA07
:1047200002940194009514493846FFF7D9FD3246AA
:104730004146384603F082FB10B0BDE8F08700BF69
:1047400048E403203CE4032038E4032068E4032029
:104750008CE4032007480D0054E40320CF8F0D00A4
:10476000F48F0D0019900D0020900D0045900D0064
:104770004E900D00A0E4032073900D006CE4032024
:10478000695F0D004CE4032038B50446C068831807
:104790000A2B154605D8204404F039FBE3681D4474
:1047A000E560012038BD000010B588B0002404ABDE
:1047B0000122ADF80E0000930194094BADF81640AC
:1047C00011460DF10E00ADF81840079400F000FFFF
:1047D000079B0A2B0CBFDDF81600204608B010BD61
:1047E00089470D0000F08CBD00F08ABD10B504466D
:1047F000017042708370012103EB430004F0E2FA80
:104800006060204610BD10B50446406800F090FF7F
:10481000204610BD10B500210446007803F09BFA35
:10482000142000F05DFD2078012103F094FA14209B
:10483000BDE8104000F054BD70B506460D46082492
:1048400015F0800F14BF01210021707803F083FA66
:10485000013C3046FFF7DEFF6D0014F0FF04EDB2BF
:10486000EED170BD13F0800FF8B50D46164614BF9B
:10487000C021E0215A061F4658BF41F010013306FF
:10488000044658BF41F00801700658BF41F00401CA
:104890002A0658BF41F002016B0658BF41F00101E2
:1048A0002046FFF7C9FF39462046FFF7C5FF3146CE
:1048B0002046FFF7C1FF29462046BDE8F840FFF734
:1048C000BBBF2DE9F84F04460D46002191469A469C
:1048D0009DF828B0FFF7B0FF00212046FFF7ACFF9E
:1048E00000212046FFF7A8FF00212046FFF7A4FF84
:1048F00003274FF00108002617FB0588A278F3B2C2
:104900009A421BD9AB420DD1616815FB07F201F841
:104910000290626802F808A0022217FB0522616873
:1049200001F802B0606803EB43014218415C9378E0
:1049300052782046FFF796FF0136DFE72046002138
:10494000FFF77AFF20460021FFF776FF204600217F
:10495000FFF772FF20460021BDE8F84FFFF76CBF5C
:1049600073B504460121007803F0E4F90121607871
:1049700003F0E0F900252E46A378E9B28B4205F159
:10498000010506D9002300961A462046FFF799FF35
:10499000F2E702B070BD0000F8B5B5EEC01AF7EE50
:1049A000007AF1EE10FA2DED048BF0EE418A48BF4B
:1049B00071EE278AB0EE408AF4EEE78AF1EE10FA43
:1049C000C4BFF7EE007A78EEE78AB0EE609A18EE90
:1049D000900A03F0E9FC2FA3D3E9002304460D4617
:1049E00003F0A8FF60B179EE487A17EE900A03F061
:1049F000DBFC0022264B03F02BFD22462B4625E054
:104A0000F6EE007AF4EEE78AF1EE10FA2FD41EA348
:104A1000D3E900232046294603F08CFF50B379EEFA
:104A2000487A17EE900A03F0BFFC224606460F466E
:104A30002B4615A1D1E9000103F056FB02460B46B7
:104A40003046394603F004FD114B002203F000FD0F
:104A5000044618EE100A0D4603F0A6FC02460B466B
:104A60002046294603F042FB03F0ACFF04E019EEB8
:104A7000100A01E018EE100ABDEC048B00EE100ADB
:104A8000F8BD00BFAFF30080555555555555E53F6E
:104A900000001840555555555555C53F00000000BC
:104AA0002DE9F0432DED048BF5EE400AF1EE10FAFE
:104AB00083B080468946F0EE409AB0EE609AB0EE40
:104AC000418A6ED011EE100A03F06EFCF6EE007A09
:104AD000B4EEE78AF1EE10FA06460F4610D519EE4D
:104AE000100A03F061FC00224D4B03F0FFFA32463E
:104AF0003B4603F0ADFC03F065FF08EE900A03E0CF
:104B000079EE088AE9EE488A19EE900A03F04CFC27
:104B100032463B4604460D463046394603F0E6FA37
:104B2000064618EE900A0F4603F03EFC02460B467E
:104B30003046394603F0D8FA03F044FF34A3D3E9F2
:104B4000002309EE100A2946204603F0CFFA03F0AD
:104B500039FFF0EE680A01EE100AB0EE490AFFF7DD
:104B60001BFFB0EE691AF0EE680AB0EE408AB0EEB4
:104B7000490AFFF711FF26A3D3E90023204629465F
:104B8000F0EE409A03F0B0FA03F01CFFF0EE680A72
:104B900001EE100AB0EE490AFFF7FEFEF0EE408A81
:104BA00003E0F0EE418AF0EE419A19EE900A03F02C
:104BB000FBFB19A3D3E9002303F04AFC03F0E2FE58
:104BC000C5B218EE100A03F0EFFB13A3D3E90023DC
:104BD00003F03EFC03F0D6FEC4B218EE900A03F0D8
:104BE000E3FB0DA3D3E9002303F032FC03F0CAFE7C
:104BF000C0B200902B46224649464046FFF761FE70
:104C000003B0BDEC048BBDE8F08300BFAFF30080C0
:104C1000555555555555D53F0000000000E06F40F3
:104C20000000F03F00F06CBB10B503682F2B04466A
:104C300004D9074A00210A2000F08AFC23681F2BB0
:104C400083BF03F01F03236002484FF0A04010BD54
:104C5000E1520D000003005007B502AB43F8040D0C
:104C60001846FFF7E1FF019A01239340C0F8083589
:104C700003B05DF804FB07B502AB43F8040D18461A
:104C8000FFF7D2FFD0F81035019823FA00F000F0BA
:104C9000010003B05DF804FB02720122817102740D
:104CA0007047000010B500210446807903F042F8F7
:104CB000074AA37912681B01D118D05C4B7803F026
:104CC0001F0343EA4010FFF7C7FF0023E36010BD56
:104CD000B8E403202DE9F74F044600F009FBE36830
:104CE000834284BF0023E360237C33B9E368C01AA6
:104CF000B0F5FA6F01D20120A8E00025554E2574C9
:104D000000F0F6FAA3793268E0601B01D118257132
:104D1000E570A57065702570D05C4B7803F01F03BB
:104D200043EA4010FFF798FFFA2000F072FD0121DE
:104D3000A07902F0FFFFA37932681B01D118D25C81
:104D40004B7802A803F01F0343EA421340F8043DE6
:104D5000FFF76AFF019B4FF0010808FA03F3C0F860
:104D60000C35142000F055FD02F03EF9A3793268AD
:104D70001B01D118D05C4B7803F01F0343EA4010AD
:104D8000FFF76AFF282000F0ABFA2946A07902F06D
:104D9000D1FF2F464FF0000BA37932681B01D118C9
:104DA00012F803A04B7803F01F0343EA4A1A504657
:104DB000FFF761FF5046FFF75EFF80455FFA8BF912
:104DC00008D101200BF1010B00F08AFABBF1FF0FB3
:104DD000E2D1D946A37932681B01D11812F80380B9
:104DE0004B7803F01F0343EA48184046FFF743FFA0
:104DF0004046FFF740FFB9F1FF0F5FFA80F814D08B
:104E0000032D0ED9EB070CD4FA080137A35C5B0025
:104E1000DBB2A354217A49453CBF43F00103A354BC
:104E2000FFB20135EDB2552DB4D102F0DFF8272FD6
:104E30000BD92278637821791344A2781344E2785D
:104E40001344DBB299423FF456AF002003B0BDE8F3
:104E5000F08F00BFB8E4032010B50446FFF73AFF17
:104E600028B1A37800EE103AB8EE400A10BD9FEDCD
:104E7000010A10BD0000C07F08B5FFF7EDFFF2EE9C
:104E8000027A60EE277AB1EE047A87EE870ADFEDC8
:104E9000027A30EE270A08BD0000004210B5044631
:104EA000FFF718FF28B1237800EE103AB8EE400A59
:104EB00010BD9FED010A10BD0000C07FFFF7EEBFDF
:104EC00008B500F01DFA014B186008BDB8E40320D6
:104ED00010B5054B0360037C04461BB9406808B15C
:104EE00000F026FC204610BD88900D0010B5044649
:104EF000FFF7EEFF2046142102F0A5FF204610BD6B
:104F000010B5034B03600446FFF7E2FF204610BDD7
:104F100098900D0010B50446FFF7F2FF20463021AF
:104F200002F091FF204610BD0023C3604361037669
:104F3000437680F82A307047002310B5C360012300
:104F40000374054B03604FF0FF3341608260C3621E
:104F5000FFF7EAFF10BD00BF98900D00C36882689C
:104F600010B593423FBF42685C1CC460D15424BF5B
:104F7000012380F82A3010BD38B54469651C082D1E
:104F800009D800EB4403012445619C76DA76FFF7EB
:104F9000E5FF204638BD002038BD10B54369044602
:104FA00043B100EB4303597E09B1FFF7D7FF6369B3
:104FB000013B6361A368E068616898424FF00002BA
:104FC0002ABF5B180A5403F8012C10BD70B50446C3
:104FD000C068A56866682D1A134630440A462946FB
:104FE00000F0B6FB85422DBFE368A368E360C018FC
:104FF00036BF0123E06084F82A3070BD0EB403B5DB
:1050000003AA52F8041B0192FFF7E0FF02B05DF81B
:1050100004EB03B0704700002DE9F04104460E4652
:10502000174612B12221FFF799FF0025715D06EBAB
:105030000508002971D0E268A3689A426DD20B0678
:1050400033D501F0F003E02B17D198F8013003F0CD
:10505000C002802A11D105F1020816F8082002F0DA
:10506000C000802809D102F03F029B0142EA0132D0
:1050700003F47C631A4392B211E001F0E003C02B09
:1050800046D105F1010816F8083003F0C002802A65
:105090003ED1890101F4F86203F03F031A4323492A
:1050A0002046FFF7ABFF454635E00C2918D00BD85A
:1050B000092921D00A2919D0082929D15C212046A3
:1050C000FFF74CFF622123E022291BD05C2919D075
:1050D0000D291DD15C212046FFF740FF722117E00A
:1050E0005C212046FFF73AFF662111E05C21204653
:1050F000FFF734FF6E210BE05C212046FFF72EFF07
:10510000742105E05C212046FFF728FF98F8001085
:105110002046FFF723FF013588E72FB120462221E3
:10512000BDE8F041FFF71ABFBDE8F081A9900D007E
:10513000426900EB42031A7E12B100221A767047D0
:105140002C21FFF70BBF000007B5C26A002A07DB5E
:105150008DED000B0649FFF751FF03B05DF804FB2E
:1051600053EC102B034903B05DF804EBFFF746BF87
:10517000C0900D00C6900D0000F0C2B808B5024BFB
:105180001B689B68019308BD7802030008B5024BB9
:105190001B681B6D019308BD7802030008B5024B24
:1051A0001B689B6D019308BD7802030008B5024B94
:1051B0001B681B6E019308BD7802030008B5034B02
:1051C0001B68D3F89830019308BD000078020300F3
:1051D00008B5034B1B68D3F8A830019308BD000045
:1051E0007802030008B5034B1B68D3F8B430019371
:1051F00008BD00007802030008B5034B1B68D3F814
:10520000D830019308BD00007802030008B5034BB5
:105210001B68D3F8DC30019308BD0000780203005E
:1052200008B5034B1B68D3F8EC30019308BD0000B0
:105230007802030008B5034B1B68D3F8F0300193E4
:1052400008BD00007802030008B5034B1B68D3F8C3
:105250000031019308BD00007802030008B5034B3C
:105260001B68D3F80431019308BD000078020300E5
:1052700008B5024B1B689B68019308BD48020300F8
:1052800008B5024B1B681B69019308BD4802030067
:1052900008B5024B1B685B69019308BD4802030017
:1052A00008B5024B1B685B6C019308BD4802030004
:1052B00008B5024B1B68DB6C019308BD4802030074
:1052C00008B5024B1B685B6D019308BD48020300E3
:1052D00008B5024B1B685B68019308BD1802030008
:1052E00008B5024B1B68DB68019308BD1802030078
:1052F00008B5024B1B685B69019308BD18020300E7
:1053000008B5024B1B681B68019308BD2C02030003
:1053100008B5024B1B685B68019308BD2C020300B3
:1053200008B5024B1B689B68019308BD2C02030063
:1053300008B5024B1B68DB68019308BD2C02030013
:1053400008B5024B1B681B69019308BD2C020300C2
:1053500008B5024B1B681B6A019308BD2C020300B1
:1053600008B5024B1B685B6A019308BD2C02030061
:1053700008B5024B1B681B6B019308BD2C02030090
:1053800008B5024B1B681B6A019308BD2802030085
:1053900008B5024B1B685B6A019308BD2802030035
:1053A00008B5024B1B689B6A019308BD28020300E5
:1053B00008B5024B1B68DB6A019308BD2802030095
:1053C00008B5024B1B681B6B019308BD2802030044
:1053D00008B5024B1B685B6B019308BD28020300F4
:1053E00008B5024B1B681B6C019308BD2802030023
:1053F00008B5024B1B685B69019308BD640203009A
:1054000008B5024B1B689B68019308BD6802030046
:1054100008B5024B1B68DB68019308BD68020300F6
:1054200008B5024B1B68DB69019308BD300203001D
:1054300008B5024B1B681B6A019308BD30020300CC
:1054400008B5024B1B681B6C019308BD30020300BA
:1054500008B5024B1B685B6C019308BD300203006A
:1054600008B5024B1B681B68019308BD3C02030092
:1054700008B5024B1B68DB68019308BD3C020300C2
:1054800008B5024B1B681B69019308BD3C02030071
:1054900008B5024B1B685B69019308BD3C02030021
:1054A00008B5024B1B689B69019308BD3C020300D1
:1054B00008B5024B1B68DB69019308BD3C02030081
:1054C00008B5024B1B681B6A019308BD3C02030030
:1054D00008B5024B1B689B6A019308BD3C020300A0
:1054E00008B5024B1B681B68019308BD4C02030002
:1054F00008B5024B1B685B68019308BD4C020300B2
:1055000008B5024B1B681B69019308BD4C020300E0
:1055100008B5024B1B685B69019308BD4C02030090
:1055200008B5024B1B689B69019308BD4C02030040
:1055300008B5024B1B68DB69019308BD4C020300F0
:1055400008B5024B1B681B6A019308BD4C0203009F
:1055500008B5024B1B685B6B019308BD600203003A
:1055600008B5024B1B681B6D019308BD6002030068
:1055700008B5024B1B685B68019308BD200203005D
:1055800008B5024B1B685B69019308BD200203004C
:1055900008B5024B1B681B6A019308BD200203007B
:1055A00008B5024B1B68DB6A019308BD20020300AB
:1055B00008B5024B1B68DB6C019308BD2002030099
:1055C00008B5024B1B685B6D019308BD2002030008
:1055D00008B5034B1B68D3F88430019308BD000065
:1055E0002002030008B5034B1B68D3F888300193F1
:1055F00008BD00002002030008B5034B1B68D3F868
:105600009430019308BD00002002030008B5034B4D
:105610001B68D3F8A030019308BD000020020300EE
:1056200008B5024B1B681B68019308BD44020300C8
:1056300008B5024B1B685B68019308BD4402030078
:1056400008B5024B1B685B69019308BD4402030067
:1056500008B5024B1B681B6A019308BD4402030096
:1056600008B5024B1B68DB6B019308BD44020300C5
:1056700008B5024B1B681B6C019308BD4402030074
:1056800008B5024B1B685B68019308BD400203002C
:1056900008B5024B1B689B68019308BD40020300DC
:1056A00008B5024B1B68DB68019308BD400203008C
:1056B00008B5024B1B681B69019308BD400203003B
:1056C00008B5024B1B685B69019308BD40020300EB
:1056D00008B5024B1B689B69019308BD400203009B
:1056E00008B5024B1B68DB69019308BD400203004B
:1056F00008B5024B1B681B6A019308BD40020300FA
:1057000008B5024B1B681B6B019308BD40020300E8
:1057100008B5024B1B685B6B019308BD4002030098
:1057200008B5024B1B681B68019308BD1C020300EF
:1057300008B5024B1B685B68019308BD1C0203009F
:1057400008B5024B1B689B68019308BD1C0203004F
:1057500008B5024B1B685B6A019308BD1C0203007D
:1057600008B5024B1B68DB6A019308BD1C020300ED
:1057700008B5024B1B681B6B019308BD1C0203009C
:105780002DE9F04F2DED028BB0EE448AF0EE648AE5
:1057900055EC114B57EC126B83B011EE102A2B46CF
:1057A00012EE100A39468DED000B5BEC13AB03F0E3
:1057B000B7F89DED000B38BB51EC100B22462B4681
:1057C00002F092FC5246804689465B4651EC180B2B
:1057D00002F08AFC02460B464046494602F038FE7B
:1057E0002246804689462B463046394602F07CFCEC
:1057F00002460B464046494602F054FF52465B467D
:1058000002F074FC41EC100B03B0BDEC028BBDE860
:10581000F08F0021FFF7B4BE10B5836804460BB9C2
:1058200002F013FBC3689847A3681BB1032221460B
:105830002046984720461021BDE8104002F003BBE7
:105840007047002070477047002070477047002065
:10585000704710B51421044602F0F5FA204610BD39
:1058600010B51421044602F0EEFA204610BD10B522
:105870001421044602F0E7FA204610BDFEF70FBCE3
:10588000FEF70DBCFEF70BBC08B50A20024A00214A
:10589000FFF75EFE08BD00BFE1520D00A0F130032E
:1058A000DAB2092A01D818467047A0F16103052B26
:1058B00001D857387047A0F14103052B94BF373802
:1058C0004FF0FF307047000010B500230370044B09
:1058D00004461868FFF7ECFC01232370204610BD36
:1058E000C8E4032010B5037804461BB1024B1868C6
:1058F000FFF7E6FC204610BDC8E4032008B5827916
:105900008B799A4206D1062203F072FAB0FA80F03F
:10591000400908BD002008BD10B51422044600212E
:1059200003F09BFA204610BD10B5034601F11402A6
:1059300051F8044B43F8044B9142F9D110BD70B5B6
:105940000C4605461646FFF7E7FF2CB91022214604
:10595000284603F082FA16E0012E09D12B4604F105
:10596000100254F8041B43F8041B9442F9D108E0D8
:105970006A1E0F23E15C02F8011F013BDBB2FF2B23
:10598000F8D101232B74284670BD38B5044615465E
:105990001A46FFF7D4FF257301232D0A657323747C
:1059A000204638BD037C13F0FD0F14BF01200020FA
:1059B00070471FB50446FFF7F5FF08B9208809E0D6
:1059C00010220021684603F048FA1022694620465A
:1059D00003F00EFA003018BF012004B010BD00889B
:1059E0007047704710B5034601F1140251F8044B9B
:1059F00043F8044B9142F9D110BD10B551B10346A3
:105A000001F1100251F8044B43F8044B9142F9D1D3
:105A10000123037410BD10B50446FFF7C3FF28B976
:105A2000088823881B1A5842584110BD102220466E
:105A300003F0DEF9B0FA80F0400910BDF7B5054675
:105A40000E4619B9102203F008FA51E0242130461D
:105A500003F065FA042802D0002710243BE03078D8
:105A6000FFF71CFF041E47DB7078FFF717FF0028C5
:105A700042DB40EA04108DF80400B078FFF70EFF17
:105A8000041E39DBF078FFF709FF002834DB40EA19
:105A900004109DF80430C0B240EA0320288000239F
:105AA00027E02CB3F05DFFF7F9FE030612D4013CAA
:105AB000000128552421304603F031FA013787428E
:105AC00008D2F05DFFF7EAFE40B20028A2BF2B5DCE
:105AD0001843285501372421304603F020FA874225
:105AE000DFD32C440023A54202D004F8013DFAE79D
:105AF00001232B7403B0F0BD00232B80CFE738B512
:105B000004460D46FFF708FF20462946FFF796FF9B
:105B1000204638BDF0B58BB10024E51C8D420FD86E
:105B2000661C055D875D974205D12E44B14207D3BF
:105B30001C60681CF0BD01352C44EEE71846F0BD32
:105B40000020F0BD2DE9F74304460E461D461746DA
:105B5000002A3AD00A4601AB016AFFF7DBFF9DF845
:105B60002830226A03BBF8B1961C2E44361A1F2E29
:105B70002BD8DDF8048008F10209C8EB0202121AE2
:105B800000EB080105EB090092B22144204403F028
:105B900049F96B1C04F808302A46394604EB090021
:105BA00003F035F9266210E0901C2B181F2B0CD83F
:105BB0006B1CA354224420623946567020442A4666
:105BC00003F025F9226A2A442262206A03B0BDE864
:105BD000F0831FB50446034600F11F02002003F8BE
:105BE000010B93424FF00001F9D104AA062302F8F9
:105BF000013D01232162009120461946FFF7A2FFD3
:105C0000204604B010BD73B50A460E4601AB016ACA
:105C10000446FFF77FFF054678B10198226A2918EC
:105C2000121A521B2144204403F0F1F8236A5D1B31
:105C3000256231462046FFF7E6FF02B070BD000046
:105C400038B500254FF6FF73044643800E222946DF
:105C500005700571063003F000F904F11400FFF738
:105C60005BFE04F12800FFF757FE044904F13C00F5
:105C700001F00FFDE5642565204638BD00940D0058
:105C800010B58369C26903EBC2029342184606D07D
:105C9000046824888C4203F10803F6D110BD00206B
:105CA00010BD00002DE9F34180461F460E4669B342
:105CB00062B3F42A056828BFF42214462A78A2B1F8
:105CC0002B79980707D500232246A889FFF78AFA7F
:105CD000002802DA43E06FF07700D8F800502B7903
:105CE000DA0618D5012F23D115E068884FF6FF7327
:105CF00098420DD02B79590723D5012F21D0A9899E
:105D0000009223463246FFF781FA28E0154826E044
:105D10006FF0D10023E09A0621D5022F1FD0A88969
:105D200000232246314602B0BDE8F041FFF796BAA3
:105D3000A88900232246314602B0BDE8F041FFF7B2
:105D400083BA1B0701D5022F02D16FF0770006E05E
:105D50000023A989009332462346FFF74DFA02B08B
:105D6000BDE8F081F2FEFFFF10B50A6852F8023F6D
:105D700003605368436010BD1FB502680B6812884A
:105D80001B889A420C460CD101466846FFF7ECFF8F
:105D9000214602A8FFF7E8FF02A96846FFF7AEFD1B
:105DA00000B9002004B010BD10B504463420FEF741
:105DB00074F9014668B10023036043608360C360E7
:105DC000036143618361C361036243628362C362AF
:105DD0000363216019B90A4A0A20FFF7B9FB0020C2
:105DE000FFF7CCF920B1064A00210A20FFF7B0FBEB
:105DF000002221680348FFF71DFA204610BD00BFAE
:105E0000E1520D00C9610D0010B50A4C2368DB0793
:105E10000ED42046FEF747F950B10748FFF7C4FFFC
:105E20002046FEF745F9054A0549034802F006F801
:105E3000014810BDC0E40320BCE4032038E4032083
:105E4000DD5F0D0070B50368093B012B8AB0044685
:105E50000E4619D8FFF7D8FFA1880068FFF710FF9A
:105E6000024658B920230293084B0390009302AADC
:105E7000034607493220FFF773FB05E0F56C1DB1BF
:105E8000336DE1682069A8470AB070BD7A910D00B2
:105E900030910D00084609B90A4601E0096A00225E
:105EA000FFF774B910B50C4611B90A46084606E06A
:105EB00001212046FFF7A7FE216A00222046BDE807
:105EC0001040FFF76BB913B501A8FFF7FDFC0020E8
:105ED000FFF76CF9044601A8FFF704FD204602B065
:105EE00010BD73B505460C4601A81646FFF7ECFC3D
:105EF00021462846FFF7CEFF002808DB314628461A
:105F0000FFF7D0FF002802DB2846FFF7DCFF04463E
:105F100001A8FFF7E7FC204602B070BD0368D8690E
:105F20000028D4BF0020012070470B68036013B124
:105F30005A6801325A60704710B551F8043B044664
:105F400040F8043BFFF7F1FF23680BB9FFF79CFC17
:105F5000204610BD10B551F8043B044640F8043B00
:105F6000FFF7E3FF204610BD10B504460430FEF7EE
:105F7000A1F9204610BD70B504684368054604EBDE
:105F8000C306A64204D0201DFEF794F90834F8E7B2
:105F90002868FFF7CDFB284670BD70B504684368DC
:105FA000054604EBC306A64204D0201DFEF782F985
:105FB0000834F8E72868FFF7BBFB284670BD10B52A
:105FC000046904F11800FFF7E8FF04F10C00FFF783
:105FD000D2FF2046BDE81040FEF761B8F8B504686E
:105FE0000746C4B1A569E36905EBC306AE4204D018
:105FF000281DFEF75FF90835F8E7A069FFF798FB61
:1060000004F10C00FFF7C9FF2046FFF7B4FF34216D
:10601000204601F018FF3846F8BD000073B5002592
:106020000560456006462420FEF737F8044678B13F
:1060300003464FF6FF7223F8022BC0F802505D6052
:106040008572C572C560056145618561C56105627E
:10605000002314200193FEF720F8034628B1012203
:1060600042608260084A0260046102A8726840F8D7
:10607000042D73603460FEF71DF933680BB9FFF728
:1060800003FC304602B070BD0C910D00884270B523
:1060900015461AD9904219D2A1F10806511A0439AD
:1060A000151F44182B1F9E4225D0042C07D055F8ED
:1060B000043C44F8043C29462046FFF736FF2846B6
:1060C000FEF7F8F8083D083CECE714D00C1D061D5F
:1060D000231F9D420FD0042E07D054F8043C46F8ED
:1060E000043C21463046FFF720FF2046FEF7E2F849
:1060F00008340836ECE770BD2DE9F04104684368C8
:106100000546884604EBC307A74218D041462046FF
:10611000FFF732FE064608B90834F5E78CB1201DBA
:10612000FEF7C8F82B686A6804F1080103EBC202A5
:106130002046FFF7ABFF6B68013B6B6002E0002677
:1061400000E026463046BDE8F081F7B5044651F838
:10615000043B4768009301A8FFF7E7FE6668A36861
:106160009E4214DB0136002E0BDDF000FFF7D8FA5B
:10617000054618B394E8060001EBC202FFF786FF5C
:1061800000E000252068FFF7D3FA2560A6602668A6
:10619000626806EBC70506EBC202294605F1080056
:1061A000FFF774FF35B1009B46F8373001A9281D71
:1061B000FFF7BBFE636801336360012501A8FEF7AA
:1061C00079F8284603B0F0BD2DE9F04104468EB0C1
:1061D00003A80D46FFF778FB2368032B02D0042B9E
:1061E00042D087E004A8FFF719FF049B22891A8098
:1061F0006268049952F8083FC1F802305368C1F848
:10620000063007A8049B069305A9FFF78EFE06A992
:1062100005F11800FFF799FF044607A8FEF74AF8B2
:106220002023069374B9364B009306AA23463549BA
:1062300007943220FFF794F9049B21461888FEF753
:10624000BDFF0DE0304A0092002306AA2D490793B6
:106250000120FFF785F96B6A13B1E96A04A8984732
:1062600005A8FEF727F845E021892846FFF708FD35
:10627000074600283ED00468A369E1694FF6FF7223
:10628000228003EBC101994203D053F8080B4280EE
:10629000F9E7E668236906EBC308B04504D0301D72
:1062A000FEF708F80836F8E700232361A669E369DA
:1062B00006EBC308B04504D0301DFDF7FBFF0836E0
:1062C000F8E70023E361A372E372AB6A13B1296BB1
:1062D0003846984720230D4A069300920023094927
:1062E0000793012006AAFFF73BF9394605F118008C
:1062F000FFF702FF03A8FFF7F5FA0EB0BDE8F08143
:1063000092910D0030910D00B8910D00D5910D00C6
:106310008842F8B506460C46154614D9904213D269
:10632000A2F108056C1AA1F108070444AF4218D085
:106330001CB129462046FFF70DFE281DFDF7BAFFC8
:10634000083D083CF2E70CD0AC420AD01EB1214611
:106350003046FFF7FFFD201DFDF7ACFF083408367F
:10636000F2E7F8BD70B50E1E05460BDDF000FFF735
:10637000D7F9044670B195E8060001EBC202FFF7B9
:10638000C7FF00E000242868FFF7D2F92C60AE6058
:10639000012070BD70BD73B5044645686846FFF7BF
:1063A000D9FD6168A368994205DB01312046FFF7FA
:1063B000D9FF064698B12368626803EBC50503EB75
:1063C000C202294605F10800FFF7A2FF1DB1694688
:1063D0002846FFF7BFFD636801336360012601A80B
:1063E000FDF768FF304602B070BD8842F8B506463A
:1063F0000C46154614D9904213D2A2F108056C1A26
:10640000A1F108070444AF4218D01CB12946204628
:10641000FFF792FD281DFDF74DFF083D083CF2E710
:106420000CD0AC420AD01EB121463046FFF784FDA5
:10643000201DFDF73FFF08340836F2E7F8BD70B5C0
:106440000E1E05460BDDF000FFF76AF9044670B139
:1064500095E8060001EBC202FFF7C7FF00E0002449
:106460002868FFF765F92C60AE60012070BD70BD33
:1064700073B5044645686846FFF75EFD6168A3682A
:10648000994205DB01312046FFF7D9FF064698B156
:106490002368626803EBC50503EBC202294605F1D8
:1064A0000800FFF7A2FF1DB169462846FFF744FD2B
:1064B000636801336360012601A8FDF7FBFE3046E7
:1064C00002B070BD10B50446406808B1FDF7E7FDA5
:1064D000204610BD07B503690C308DE8090003F1B3
:1064E0003C0001F08FF86846FFF7ECFF03B05DF861
:1064F00004FB000038B500230446036014200D4659
:10650000FDF7CBFD28B1012343608360024B03609C
:1065100005612060204638BDD4900D002DE9F04182
:1065200088B005461E46542000230F46904604932B
:106530000593FDF7B2FDCDF818D004460790C0B121
:1065400098F80080FFF77CFB394604F13C0084F8A2
:10655000048001F0CBF80F9BE3643146109B236568
:1065600004F11400FFF73EFA0E9904F12800FFF73A
:1065700039FA2146002601AB02AA03A80796FFF7C5
:10658000B9FF039B059A039203A805930494FDF7B2
:1065900091FE06A8FFF796FF049B2968059A2B60D9
:1065A00008A86B6806916A6040F8043D0596049659
:1065B000FDF780FE05A8FDF77DFE296819B9034A9D
:1065C0000A20FEF7C5FF08B0BDE8F081E1520D00DA
:1065D00010B50446406808B1FDF761FD204610BDC6
:1065E00007B503690C308DE809006846FFF7F0FF36
:1065F00003B05DF804FB000038B5002304460360D7
:1066000014200D46FDF749FD28B101234360836046
:10661000024B036005612060204638BDF0900D00FC
:10662000F0B5002687B006604660044618200F4685
:10663000FDF733FDCDF810D00546059038B1FFF7D2
:106640006BF939462846AE82EE82FFF7CBF900237C
:106650002946059302AA01AB03A8FFF7CDFF039BD0
:1066600062682560636003A80392FDF723FE04A817
:10667000FFF7AEFF23680BB9FFF706F9204607B016
:10668000F0BD00002DE9F04F17469FB0804605A8E9
:106690000E46FFF719F93C682379002B00F0F380D0
:1066A0003368DD681B6905EBC303039304F1140A27
:1066B00004F1280B039BAB4223D0D5F80090504641
:1066C00009F11401FFF7A7F9002800F0E18009F1B2
:1066D00028015846FFF79FF9002800F0D980236869
:1066E00023F47F41D9F8003023F47F43994240F0EE
:1066F000CF8020236B4A139300230092149313AA94
:10670000BDE004F128052846FFF753F918B966499A
:106710002846FFF772F93368D3F800905B6809EBFD
:10672000C30AD145294608D0D9F80000FFF773F90C
:10673000002837D109F10809F3E706A8FFF770FF31
:1067400013AA2B4604F1380C96461868596815466A
:1067500003C5083363452A46F7D118682860069AAE
:106760000023143271460120FEF732FD00287ED14D
:10677000356806A90BA8FFF7EDFB28460BA9FFF724
:106780000AFE05460CA8FDF795FD002D6FD0326876
:106790005368126803F10053013B07A802EBC309D9
:1067A000FDF788FD04F114052846FFF702F968B9E2
:1067B0003E4B3D491A88013292B21A8013A8012338
:1067C000FFF7E3F813A92846FFF70CF94FF02C0A5E
:1067D0005246002113A802F040FB012306AAADF89F
:1067E0004C30ADF84EA02B4604F1240C1546186829
:1067F00059689646AEE80300083363457246F6D101
:106800001868CEF800000FCD0DF1580EAEE80F005D
:106810002B68CEF8003023798DF85030D9F800304D
:106820009B8AADF86C30E36B15930022204B1C93D0
:10683000A11D13A81D94FEF7F3FC20BB01232370B8
:10684000346839460C340BA8FFF776FB20460BA9B9
:10685000FFF70EFE04460CA8FDF72CFD9CB9202383
:106860000B93144B00930C9423460BAA07E0394674
:106870004046FFF761FB07A8FDF71CFD0AE00E4943
:106880003220FEF76DFE39464046FFF755FB01E02A
:1068900008350FE705A8FFF725F840461FB0BDE80B
:1068A000F08F00BFA5920D0020910D00C4E40320DD
:1068B000455E0D007E920D0030910D0002480023D0
:1068C0000360FEF7EDBC00BFC8E403207047002062
:1068D000704710B51021044601F0B5FA204610BDEE
:1068E00008B508B1FFF7F5FF08BD10B58368044689
:1068F00013B1032201469847204610BD00220260D2
:1069000010B54FF69C728280B1F9044084808A8071
:1069100002680C6804600A6010BD10B50446006887
:10692000FEF706FF204610BD38B5C468F4B12378E1
:10693000022B03D104F10C00FFF7EFFF656835B1BE
:106940002846FFF7D2FF1021284601F07CFAA568FF
:1069500035B12846FFF7C9FF1021284601F073FA28
:1069600020461421BDE8384001F06DBA38BD10B59D
:1069700088B00446684600F08CFE694604A800F022
:10698000AAFE04A8A047044604A800F03BFE6846FF
:1069900000F038FE204608B010BDF0B5102485B0D8
:1069A00007460E46154600212246684602F055FA73
:1069B000002269461046ADF8004002970396019503
:1069C000FEF736FE05B0F0BD08460021FEF750BECA
:1069D00013B5044691E8050000234B600B6020606E
:1069E000626001A801930093FDF764FC204602B0A9
:1069F00010BDF7B50C4602AD54F8043B45F8083D10
:106A000006460F4601A82146FFF78FFA2946304671
:106A1000FFF7DEFF01A8FDF74DFC2046FDF74AFC1D
:106A20003846082101F00FFA304603B0F0BD13B527
:106A30000B46044603C88DE8030093E8030084E88E
:106A400003009DE8030083E8030002B010BD0000CE
:106A500038B500230446036010200D46FDF71DFBEA
:106A600028B1012343608360024B0360C56020604E
:106A7000204638BDD8920D00826810B50AB901F0E1
:106A8000E4F9C368BDE81040184708B5006800F194
:106A90001001FFF7F1FF08BD826810B50AB901F0D7
:106AA000D4F9C368BDE81040184708B5006800F184
:106AB0001001FFF7F1FF08BD38B5002383608B6834
:106AC00004460D462BB102229847EB68E360AB68A1
:106AD000A360204638BD0000F0B589B00468684660
:106AE000FFF70CFF00238DF808304FF00202D4E8C6
:106AF0004F3F002B03D1C4E8412F0029F7D102D02A
:106B00008DF8083063E014F10C0503D0694628467F
:106B1000FFF7F4FEBFF35F8F01236370002004F1E1
:106B20000803BFF35F8F53E8006F43E80002002AB9
:106B3000F9D1BFF35F8F002E49D0FEF739FD20B1A8
:106B400029463046FFF798FF3AE0314602A8FFF7A2
:106B5000B3FFE068B4F9105008B102F0BDF9069037
:106B60001020ADF81C50FDF798FA0546E8B1002753
:106B700087601820FDF791FA044688B101468760C6
:106B800002A8FFF754FF049BA268A360059B049230
:106B900006A9E268E36004F110000592FFF7AEFE7B
:106BA0000D4BEB600D4B2C60AB6006A8FFF7B5FEFC
:106BB00002A8FFF79AFE002229460948FEF700FDC9
:106BC0003046FFF792FE1021304601F03CF968464E
:106BD000FFF7A3FE09B0F0BD8B6A0D00016D0D003B
:106BE00019580D002DE9F04F8BB006460F46904620
:106BF00099469DF850A0FEF723FD07AD834630BBB4
:106C00004FF62E73059005A92846ADF81830FFF70A
:106C100075FE1420FDF741FA044658B102230370B3
:106C200001234370C0F804B0C0F808B029460C3006
:106C3000FFF764FE3046214640F8044BFFF708FF9B
:106C40002846FFF76AFE05A8FFF767FE52E000241A
:106C50000C2314206C60AC600793FDF71EFA01460C
:106C600018B1047044704460846004A80391FFF775
:106C7000EFFE224B08930820FDF70FFA044628B1D7
:106C8000039B40F8043B04A9FFF74FF900955FFA16
:106C90008AF34A46414638460994FEF7D9FC20B9A2
:106CA000039B5B7803F0FF0283B1039B059304A968
:106CB00006A8FFF73AF905A93046FFF789FE06A8AE
:106CC000FDF7F8FA04A8FDF7F5FA13E04FF69C7308
:106CD00005A903A80592ADF81830FFF7FDFE05A839
:106CE000FFF71BFE05A80999FFF783FE06A8FDF72D
:106CF000E1FADAE730460BB0BDE8F08F716E0D00B7
:106D0000022AF8B5044606D0032A17D0012A22D158
:106D10000B6803601FE018200E68FDF7BEF90546FA
:106D200050B13146FFF7C8FE3069B6F9147008B1AA
:106D300002F0D2F82861AF8225600CE0046854B1FB
:106D400004F11000FFF7E9FD2046FFF7CEFD182102
:106D5000204601F078F80020F8BD38B500238360A4
:106D60008B6804460D462BB102229847EB68E3601E
:106D7000AB68A360204638BD022A70B5044606D031
:106D8000032A11D0012A18D10B68036015E01420E2
:106D90000E68FDF782F9054620B13146FFF7DDFFA9
:106DA000337C2B74256008E0046834B12046FFF77B
:106DB0009CFD1421204601F046F8002070BD000023
:106DC000F0B5002387B00C46BFF35F8F50E8006F2B
:106DD00040E80032002AF9D1BFF35F8F002E3FD088
:106DE0001846FEF7E5FB074620B121463046FFF77F
:106DF00053FE2EE0314601A8FFF7AFFF23788DF850
:106E000014301020FDF749F90546D0B187601420F1
:106E1000FDF743F9044678B18760014601A8FFF702
:106E200006FE039BA268A360049B0392E268E360F2
:106E30009DF81430049223740A4BEB600A4B2C60CB
:106E4000AB6001A8FFF751FD002229460748FEF775
:106E5000B7FB3046FFF749FD1021304600F0F3FF45
:106E600007B0F0BDAB6A0D00796D0D0019580D002B
:106E700030B585B004460D4668461146FFF7B9FDAA
:106E80007CB124B228460DB102F026F8029002A986
:106E90006846ADF80C40FFF71FFE02A8FFF73DFD66
:106EA0001DE000988DF808404FF00102D0E84F3FF8
:106EB000A34203D1C0E8412F0029F7D102D08DF8B9
:106EC00008300CE010F10C014FF0010318BF037300
:106ED000BFF35F8F043000F8033CFFF771FF01A898
:106EE000FDF7E8F905B030BD002211464068FEF715
:106EF000FFBB002211464068FEF70ABC0022406832
:106F0000FEF7FEBB002281F001014068FEF7E8BBFE
:106F100000231A4619464068FEF7DABB00231A46DA
:106F200019464068FEF7CCBB002211464068FEF7C8
:106F3000BFBB002211464068FEF7AABB0022022117
:106F40004068FEF7ADBB00231A464068FEF798BBC9
:106F5000024B03225A60024A1A607047CCE40320B5
:106F6000F4920D007047F8B5064615460C468F188A
:106F7000BC4206D0336814F8011B9B683046984722
:106F8000F6E72846F8BD0022007CFEF7F9B900219B
:106F9000007CFEF7FDB90021007CFEF701BA00215C
:106FA000007CFEF705BA0021007CFEF709BA10B597
:106FB0001421044600F047FF204610BD10B50446DA
:106FC0004FF47A730846A3600021044B207461607B
:106FD0002360FEF705FA204610BD00BF28930D0080
:106FE0000021007CFEF7F4B9FEF7BAB9FEF7B0B99C
:106FF000704710B51821044600F025FF204610BD4B
:10700000F0B5037D062B8DB00E4600F104074FF05E
:10701000000402D000F1080518E00CAD394605F86F
:10702000304D2F232A460A20FEF7E2F9284601F0C8
:107030006EFF33680246DB682946304698470FE00A
:1070400024B12E21304600F0CDF9044415F8011D7D
:107050000A22304600F0D5F9BD420444F0D1204662
:107060000DB0F0BD10B5054B0446112240F8043BAD
:10707000002101F0F2FE204610BD00BF50930D002C
:107080000346074A10B543F8042B01F1100251F8EA
:10709000044B43F8044B9142F9D10A781A7010BDA1
:1070A00050930D0010B59DF8084044EA032343EACD
:1070B000024242EA016104234160037510BD37B505
:1070C0000D788B784A78C97800912946FFF7EAFF56
:1070D00003B030BD014B024A1A607047D4E403206C
:1070E000CF930D00002211464068FEF701BB00223D
:1070F00011464068FEF70CBB00224068FEF700BB5B
:10710000002281F001014068FEF7EABA00231A4626
:1071100001214068FEF7DCBA00231A461946406890
:10712000FEF7CEBA002211464068FEF7C1BA00222F
:1071300011464068FEF7ACBA002202214068FEF713
:10714000AFBA00231A464068FEF79ABA38B505462A
:1071500088B104684CB1A3681BB1032221462046C4
:1071600098471021204600F06EFE28461421BDE805
:10717000384000F068BE38BD10B103685B6818473E
:10718000704710B503680446BBB15868FEF770F845
:1071900078B923685A7C12B95868FEF771F82368E9
:1071A0005868FEF775F820680023236028B1FFF7C0
:1071B000CDFF206808B1FFF7C9FF204610BD0000D1
:1071C00038B50C4B03600446D0F8CC0108B1FCF78D
:1071D00068FFD4F8C45135B12846FFF7D2FF042127
:1071E000284600F030FEA06808B1FFF7C5FF204632
:1071F00038BD00BF40940D0038B50E4C0E4B2360D7
:107200000025022304F5E4706360A560C4F8C4514E
:10721000C4F8C851FEF744F8084BC4F8CC5184F8C0
:10722000D05123602046064A0649BDE8384000F0A8
:1072300005BE00BFD8E4032074940D0040940D00F7
:1072400038E40320C1710D0000231A464068FEF7A0
:1072500017BA002202214068FEF722BA0022114626
:107260004068FEF715BA002211464068FEF720BAC2
:1072700000231A4619464068FEF722BA00231A4630
:1072800019464068FEF724BA002281F001014068E7
:10729000FEF726BA00224068FEF732BA00221146F5
:1072A0004068FEF735BA002211464068FEF720BA62
:1072B0002DE9F043002495B016460D460746FFF72A
:1072C000D1FE214620220CA8009401F0C6FD4023E7
:1072D0000C9321466B460CAA3046FEF799F80446FB
:1072E000002844D1024601216868FEF7E1F9022135
:1072F000804622466868FEF7DBF9009E81462146FB
:10730000002E34D0002932D17368022B02D00A2B10
:1073100009D02AE0B8F1000F27D07169384604314E
:10732000FFF7CDFE20E0B9F1000F1ED074691122E5
:1073300001A801F092FD06238DF8143001AD04F18F
:1073400008031834186859682A4603C20833A34250
:107350001546F7D101A906A807ADFFF791FE0FCD9D
:107360003C1D0FC42B6823700121F669C8E7009803
:10737000FEF746F8384615B0BDE8F083024B034AE5
:107380001A6000225A607047ACE6032074940D0026
:10739000F8B506460D468F180024BD420CD0336860
:1073A00015F8011B9B6830469847002801DB044410
:1073B000F3E7002C08BF04462046F8BD70B505462B
:1073C0000C46084649B101F0A2FD2B680246214651
:1073D0002846DB68BDE87040184770BD08B5FFF768
:1073E000EDFF08BD03689B68184738B50D210546B9
:1073F000FFF7F8FF0A2104462846FFF7F3FF204471
:1074000038BD30B58BB00B4600218DF82410012A11
:1074100098BF0A220DF12304B3FBF2F505FB1233EA
:1074200003F0FF03092B94BF30333733DBB221461F
:1074300004F801392B46002DEED1FFF7BFFF0BB04A
:1074400030BD0CB42DE9F04387B000AF07F138042C
:10745000054654F8049B3C600E4623464A461421D8
:10746000381DFEF775F9132805D8391D2846FFF792
:10747000A5FF044613E000F1080323F00703E846E4
:10748000ADEB030D411C23464A4668463C60FEF7BF
:107490005FF969462846FFF791FF0446C5461EB1CD
:1074A0002846FFF7A2FF044420461C37BD46BDE82E
:1074B000F04302B0704710B50446FFF716FA2046B5
:1074C00010BD00000348044A04490023836000F013
:1074D000B5BC00BFB4E6032038E40320B7740D0048
:1074E000704710B50C21044600F0ADFC204610BDDD
:1074F0000021FDF7A5BF0021FDF7AABF10B5054B80
:107500000360044601710846FDF78AFF0023A3606B
:10751000204610BDA8940D0038B504460079FFF749
:10752000E7FF38B92079FDF783FF05462079FFF79B
:10753000E2FF00E00025284638BD00002DE9F14FAC
:1075400059EC108B07460E460022002310EE100A5D
:10755000494601F0EFF928B109F1004399462D237E
:1075600033700136002301240A22D9B28F4202D996
:1075700054430133F9E7204600F004FF42464B46EE
:1075800000F066FF82468B4601F084FA8046894609
:1075900000F028FF02460B465046594600F0A4FD75
:1075A0000022174B01F0DAF918B118F1010849F17E
:1075B0000009E51722462B464046494601F052FA9B
:1075C00001230A22314600F0E0FAAFB1304601F063
:1075D0009EFC2E2333540130064422462B4640465F
:1075E000494601F03FFA3B46104631460A2201B0B7
:1075F000BDE8F04F00F0C9BA01B0BDE8F08F00BFA0
:107600000000E03F10B504460068FEF791F8204600
:1076100010BD10B50446006808B1FEF789F80023D4
:107620002360A360636010BD38B504460D46006852
:107630000131FEF785F810B184E82100012038BD42
:1076400010B50368044613B143688B4207D2204645
:10765000FFF7EAFF20B1A3680BB92268137001207D
:1076600010BD70B50E46114604461546FFF7E8FFFB
:1076700018B92046FFF7CDFF09E02A463146A5603C
:10768000206801F0C4FB2268A3680021D154204681
:1076900070BD38B500230446036043608360037304
:1076A0000D4639B1084601F032FC29460246204613
:1076B000FFF7D7FF204638BD884210B50B46044679
:1076C00007D0096819B19A68FFF7CBFF01E0FFF70F
:1076D000A0FF204610BD10B50023044603604360A0
:1076E00083600373FFF7E8FF204610BD38B50546F9
:1076F0000C4641B1084601F00AFC214602462846E4
:10770000FFF7AFFF01E0FFF784FF284638BD10B553
:1077100000238AB004460360436083600373C8B2E9
:1077200001A9FFF70BFF01A92046FFF7DFFF204665
:107730000AB010BD10B50446006818B1FDF7F8FF97
:107740000023236010BD10B50446FFF7F3FF204669
:1077500010BD38B5B1F9043083800B460D4653F89F
:10776000062FC0F806209B8843810446FFF7E2FFFE
:107770002B6813B1236000232B60204638BDB1F97C
:10778000043010B50BB90A689AB10C685CB1A288D4
:10779000012A03D0042A06D1022205E0A4894C81E3
:1077A0008A710B8105E004220B814FF6FF738A7109
:1077B0004B8151F8063F03608B88838010BD10B564
:1077C00000240470448000294FF6FF74848007DD94
:1077D0000139994209D232F811308380012301E046
:1077E00002D10223037010BD418010BDF0B58BB0F3
:1077F00017461A46129B01930E460024119B0294D1
:10780000054600933946109B3046FDF7FFFE3B4688
:107810003246014605A8FFF7D2FF0794ADF8204095
:107820000D4C9DF81410BDF91620BDF818308DF8D8
:107830002210204607A9ADF82420ADF82630FFF726
:1078400088FF07A8FFF776FF28462146FFF797FF36
:1078500028460BB0F0BD00BFC4E6032010B5094CAC
:1078600000204FF6FF732060A080A071208163810B
:10787000FDF77EFE2046044A0449BDE8104000F0B2
:10788000DDBA00BFC4E6032038E4032047770D00CB
:10789000024B1A68024B1A60704700BFCCE303200A
:1078A000D0E6032070474174704708B5007CFDF7AF
:1078B0000FFE20EAE07008BD08B5007CFDF7E0FD92
:1078C00020EAE07008BD08B5007CFDF7E9FD30EA6C
:1078D000200028BF4FF0FF3008BD08B5007CFDF741
:1078E000D7FD30EA200028BF4FF0FF3008BD007CF4
:1078F000FDF7DEBD10B51421044600F0A4FA2046C1
:1079000010BD70B5457C04460E4625B9007CFDF7D8
:10791000DFFD002805DD3146207CBDE87040FDF725
:10792000A7BD284670BD000010B5044608461146A4
:10793000002262604FF47A72A260054A226001223E
:10794000207462741A46FDF78BFD204610BD00BFFF
:10795000E4940D00007CFDF7B3BD0000F8B5194CB0
:1079600025684DB98420FCF798FB064618B184229F
:10797000294601F072FA2660134D2E684EB9842014
:10798000FCF78BFB074618B18422314601F065FAFB
:107990002F600E4F396811F0010611D13846FCF7FF
:1079A00082FB68B122682B6809483146FFF7BCFFAB
:1079B0003846FCF77DFB074A0749054800F03EFAC8
:1079C0000348F8BDF0E60320E8E60320ECE60320D8
:1079D000D4E6032038E40320A5780D0041747047F5
:1079E000704708B50021007CFDF79AFD30EA2000C1
:1079F00028BF4FF0FF3008BD08B50121007CFDF71E
:107A00008FFD30EA200028BF4FF0FF3008BD08B5D9
:107A1000007CFDF77DFD20EAE07008BD08B5007C24
:107A2000FDF76EFD20EAE07008BD007CFDF788BD23
:107A300010B51421044600F006FA204610BD38B5F2
:107A40000446007C0D46FDF763FD002801DC607CE8
:107A500028B12946207CFDF76BFD20EAE07038BD97
:107A600010B50446002363604FF47A73A360054B9E
:107A7000236001230846217463741146FDF730FD2D
:107A8000204610BD14950D000022007CFDF730BD8E
:107A900010B514220446002101F0DFF9204610BD84
:107AA00030B50E4D87B001A8FFF7F2FF296811F03D
:107AB000010410D12846FCF7F6FA60B101AA21466C
:107AC0000748FFF7CDFF2846FCF7F2FA054A0649BA
:107AD000034800F0B3F9024807B030BDF4E60320D4
:107AE000F8E6032038E40320E1790D000022114676
:107AF0004068FDF7DDBD002211464068FDF7F8BD86
:107B0000002211464068FDF703BE00224068FDF7E1
:107B1000F7BD002281F001014068FDF7E1BD0023BF
:107B20001A4619464068FDF7D3BD00231A46194688
:107B30004068FDF7C5BD002211464068FDF7A8BDAD
:107B4000002202214068FDF7ABBD00231A464068C1
:107B5000FDF796BD024B04225A60024A1A60704734
:107B60000CE7032044950D0010B5044601F0CFF951
:107B7000013823182046984206D20278197800F876
:107B8000011B03F80129F6E710BD70B50C46911EE4
:107B9000222920D82546294610B9234430220EE058
:107BA000B0FBF2F602FB1600C1B205F8011B092872
:107BB00094BF3031573105F8011C3046EBE799424C
:107BC00002D201F8012BFAE7002320460B70FFF7E1
:107BD000CBFF204670BD002070BD000008B50C4BE7
:107BE00033B1FFF75DFF03681B699847002809DC84
:107BF000084B63B1FFF7B2FE03681B699847002882
:107C000003DC08BDAFF30080F2E7AFF3008008BDEE
:107C1000000000000000000008B5FFF7DFFFFDF7DF
:107C200067FB014B186008BD1CE703200248034AAC
:107C30000349121A01F0EBB800F4032004F4032006
:107C400038960D0007B5002300931A466FF07701B0
:107C5000FDF7D2FC03B05DF804FB000007B54388D4
:107C60000A2B08D0502B09D1094B1B683BB103B03C
:107C70005DF804EB1847FFF7E5FF06E000230093EB
:107C80001A466FF07701FDF7B7FC03B05DF804FB0F
:107C900014E7032038B5104C104D2368AB42104B4D
:107CA0000CBF012200221A7002D0FFF7BFFF25602F
:107CB000FDF70EFB044601F0E7F80A4B13B120462E
:107CC000AFF3008000210748FDF7CAFC00210648F9
:107CD000BDE83840FDF786BC00F403201E1C279A3F
:107CE00018E70320000000005D7C0D0010B504467D
:107CF0000F48FFF711FC28B1A4F10B03022B01D8A8
:107D0000002010BD00F058F8FFF76AF908B1012C07
:107D1000F6D9FFF723FEFFF71DFE18B1A4F1090302
:107D2000012BEDD9232C8CBF0020012010BD00BFFA
:107D30003CE70320232838B504460D460AD8FF291E
:107D400008D0FFF7D3FF28B129462046BDE83840C8
:107D5000FDF7E6BA38BD38B504460D46FDF7E8FA3A
:107D6000FF2810D0062804D84D2323FA00F0C307BB
:107D700009D42046FFF7BAFF28B129462046BDE8BE
:107D80003840FDF7DDBA38BD0D2810B504469CBF5C
:107D90000E34A4B22046FFF7A9FF50B103212046BC
:107DA000FDF7B6FA032804D12046BDE81040FDF7E0
:107DB000DFBA002010BD000038B50B4D296811F066
:107DC00001040FD12846FCF76EF958B12146074847
:107DD000FFF7F4F82846FCF76BF9054A0549034814
:107DE00000F02CF8014838BD24E7032028E70320E1
:107DF00038E40320656F0D0070B50C4C0C4E0D4D32
:107E000000212046FFF77AFB20460B4C32462946DC
:107E100000F014F801212046FFF770FB3246294696
:107E20002046BDE8704000F009B800BF3CE70320E1
:107E300038E40320E1740D0048E703200B460146B7
:107E4000184600F0C7BFFCF72AB908B5FDF788FC53
:107E5000244B1A68D0075CBF01221A60224B1A68B3
:107E6000D1075CBF01221A60204B1A68D2075CBFA1
:107E700001221A601E4B1A68D0075CBF01221A60EB
:107E80001C4B1A68D1075CBF01221A601A4B1A6892
:107E9000D2075CBF01221A60184B1A68D0075CBF7A
:107EA00001221A60164B1A68D1075CBF01221A60C2
:107EB000144B1A68D2075CBF01221A60124B1A6871
:107EC000D0075CBF01221A60104B1A68D1075CBF53
:107ED00001221A600E4B1A68D2075CBF01221A6099
:107EE000704700BF80E703207CE7032078E703208A
:107EF00074E7032070E703206CE7032068E70320A2
:107F000064E7032060E703205CE7032058E70320D1
:107F100054E70320184B1A68D1075CBF01221A608E
:107F2000164B1A68D2075CBF01221A60144B1A68FC
:107F3000D0075CBF01221A60124B1A68D1075CBFE0
:107F400001221A60104B1A68D2075CBF01221A6026
:107F50000E4B1A68D0075CBF01221A600C4B1A68DE
:107F6000D1075CBF01221A600A4B1A68D2075CBFB6
:107F700001221A60704700BFA0E703209CE703209E
:107F800098E7032094E7032090E703208CE7032081
:107F900088E7032084E70320184B1A68D1075CBFE9
:107FA00001221A60164B1A68D2075CBF01221A60C0
:107FB000144B1A68D0075CBF01221A60124B1A6872
:107FC000D1075CBF01221A60104B1A68D2075CBF50
:107FD00001221A600E4B1A68D0075CBF01221A609A
:107FE0000C4B1A68D1075CBF01221A600A4B1A6851
:107FF000D2075CBF01221A60704700BFC0E70320B0
:10800000BCE70320B8E70320B4E70320B0E7032070
:10801000ACE70320A8E70320A4E70320244B1A6859
:10802000D0075CBF01221A60224B1A68D1075CBFDF
:1080300001221A60204B1A68D2075CBF01221A6025
:108040001E4B1A68D0075CBF01221A601C4B1A68CD
:10805000D1075CBF01221A601A4B1A68D2075CBFB5
:1080600001221A60184B1A68D0075CBF01221A60FF
:10807000164B1A68D1075CBF01221A60144B1A68AC
:10808000D2075CBF01221A60124B1A68D0075CBF8E
:1080900001221A60104B1A68D1075CBF01221A60D6
:1080A0000E4B1A68D2075CBF01221A60704700BFEE
:1080B000F0E70320ECE70320E8E70320E4E70320F0
:1080C000E0E70320DCE70320D8E70320D4E7032020
:1080D000D0E70320CCE70320C8E70320C4E7032050
:1080E00081F0004102E000BF83F0004330B54FEA69
:1080F00041044FEA430594EA050F08BF90EA020FD6
:108100001FBF54EA000C55EA020C7FEA645C7FEA68
:10811000655C00F0E2804FEA5454D4EB5555B8BF8B
:108120006D420CDD2C4480EA020281EA030382EAFC
:10813000000083EA010180EA020281EA0303362D8E
:1081400088BF30BD11F0004F4FEA01314FF4801C61
:108150004CEA113102D0404261EB410113F0004F73
:108160004FEA03334CEA133302D0524263EB43032A
:1081700094EA050F00F0A780A4F10104D5F1200EC8
:108180000DDB02FA0EFC22FA05F2801841F1000123
:1081900003FA0EF2801843FA05F359410EE0A5F1F7
:1081A00020050EF1200E012A03FA0EFC28BF4CF028
:1081B000020C43FA05F3C01851EBE37101F00045DE
:1081C00007D54FF0000EDCF1000C7EEB00006EEBEB
:1081D0000101B1F5801F1BD3B1F5001F0CD3490875
:1081E0005FEA30004FEA3C0C04F101044FEA4452CC
:1081F00012F5800F80F09A80BCF1004F08BF5FEA53
:10820000500C50F1000041EB045141EA050130BD32
:108210005FEA4C0C404141EB010111F4801FA4F1D5
:108220000104E9D191F0000F04BF01460020B1FA2A
:1082300081F308BF2033A3F10B03B3F120020CDA62
:108240000C3208DD02F1140CC2F10C0201FA0CF040
:1082500021FA02F10CE002F11402D8BFC2F1200CA5
:1082600001FA02F120FA0CFCDCBF41EA0C0190405B
:10827000E41AA2BF01EB0451294330BD6FEA0404A4
:108280001F3C1CDA0C340EDC04F11404C4F120028F
:1082900020FA04F001FA02F340EA030021FA04F3A1
:1082A00045EA030130BDC4F10C04C4F1200220FAF8
:1082B00002F001FA04F340EA0300294630BD21FA36
:1082C00004F0294630BD94F0000F83F4801306BFFC
:1082D00081F480110134013D4EE77FEA645C18BFF0
:1082E0007FEA655C29D094EA050F08BF90EA020F87
:1082F00005D054EA000C04BF1946104630BD91EA7F
:10830000030F1EBF0021002030BD5FEA545C05D181
:108310004000494128BF41F0004130BD14F58004C0
:108320003CBF01F5801130BD01F0004545F0FE4134
:1083300041F470014FF0000030BD7FEA645C1ABF69
:10834000194610467FEA655C1CBF0B46024650EAA0
:10835000013406BF52EA033591EA030F41F40021CC
:1083600030BD00BF90F0000F04BF0021704730B552
:108370004FF4806404F132044FF000054FF0000127
:1083800050E700BF90F0000F04BF0021704730B5E8
:108390004FF4806404F1320410F0004548BF4042BD
:1083A0004FF000013EE700BF42004FEAE2014FEA12
:1083B00031014FEA02701FBF12F07F4393F07F4FED
:1083C00081F06051704792F0000F14BF93F07F4F1F
:1083D000704730B54FF4607401F0004521F0004162
:1083E00020E700BF50EA010208BF704730B54FF0E8
:1083F00000050AE050EA010208BF704730B511F0ED
:10840000004502D5404261EB41014FF4806404F124
:1084100032045FEA915C3FF4DCAE4FF003025FEAA6
:10842000DC0C18BF03325FEADC0C18BF033202EB2E
:10843000DC02C2F1200300FA03FC20FA02F001FA88
:1084400003FE40EA0E0021FA02F11444C1E600BF27
:1084500070B54FF0FF0C4CF4E06C1CEA11541DBFDA
:108460001CEA135594EA0C0F95EA0C0F00F0DEF8A5
:108470002C4481EA030621EA4C5123EA4C5350EA8A
:10848000013518BF52EA033541F4801143F48013DB
:1084900038D0A0FB02CE4FF00005E1FB02E506F06C
:1084A0000042E0FB03E54FF00006E1FB03569CF0C1
:1084B000000F18BF4EF0010EA4F1FF04B6F5007FC7
:1084C00064F5407404D25FEA4E0E6D4146EB060639
:1084D00042EAC62141EA55514FEAC52040EA5E50C2
:1084E0004FEACE2EB4F1FD0C88BFBCF5E06F1ED86C
:1084F000BEF1004F08BF5FEA500E50F1000041EBA3
:10850000045170BD06F0004646EA010140EA02004F
:1085100081EA0301B4EB5C04C2BFD4EB0C0541EA71
:10852000045170BD41F480114FF0000E013C00F386
:10853000AB8014F1360FDEBF002001F0004170BDAA
:10854000C4F10004203C35DA0C341BDC04F11404C3
:10855000C4F1200500FA05F320FA04F001FA05F24F
:1085600040EA020001F0004221F0004110EBD3701C
:1085700021FA04F642EB06015EEA430E08BF20EA48
:10858000D37070BDC4F10C04C4F1200500FA04F3EB
:1085900020FA05F001FA04F240EA020001F000417D
:1085A00010EBD37041F100015EEA430E08BF20EAF0
:1085B000D37070BDC4F1200500FA05F24EEA020E38
:1085C00020FA04F301FA05F243EA020321FA04F067
:1085D00001F0004121FA04F220EA020000EBD3701E
:1085E0005EEA430E08BF20EAD37070BD94F0000F1E
:1085F0000FD101F00046400041EB010111F4801F52
:1086000008BF013CF7D041EA060195F0000F18BF02
:10861000704703F00046520043EB030313F4801F3E
:1086200008BF013DF7D043EA0603704794EA0C0FF8
:108630000CEA135518BF95EA0C0F0CD050EA41060E
:1086400018BF52EA4306D1D181EA030101F000418B
:108650004FF0000070BD50EA410606BF10461946B3
:1086600052EA430619D094EA0C0F02D150EA0136BF
:1086700013D195EA0C0F05D152EA03361CBF104600
:1086800019460AD181EA030101F0004141F0FE419F
:1086900041F470014FF0000070BD41F0FE4141F423
:1086A000780170BD70B54FF0FF0C4CF4E06C1CEA23
:1086B00011541DBF1CEA135594EA0C0F95EA0C0FD8
:1086C00000F0A7F8A4EB050481EA030E52EA033593
:1086D0004FEA013100F088804FEA03334FF08055B4
:1086E00045EA131343EA12634FEA022245EA1115E1
:1086F00045EA10654FEA00260EF000419D4208BF92
:10870000964244F1FD0404F5407402D25B084FEA3E
:108710003202B61A65EB03055B084FEA32024FF4EA
:1087200080104FF4002CB6EB020E75EB030E22BF47
:10873000B61A754640EA0C005B084FEA3202B6EB07
:10874000020E75EB030E22BFB61A754640EA5C00B6
:108750005B084FEA3202B6EB020E75EB030E22BF46
:10876000B61A754640EA9C005B084FEA3202B6EB47
:10877000020E75EB030E22BFB61A754640EADC0006
:1087800055EA060E18D04FEA051545EA16754FEA68
:1087900006164FEAC30343EA52734FEAC2025FEA86
:1087A0001C1CC0D111F4801F0BD141EA00014FF015
:1087B00000004FF0004CB6E711F4801F04BF0143E6
:1087C0000020B4F1FD0C88BFBCF5E06F3FF6AFAE02
:1087D000B5EB030C04BFB6EB020C5FEA500C50F192
:1087E000000041EB045170BD0EF0004E4EEA113115
:1087F00014EB5C04C2BFD4EB0C0541EA045170BD1C
:1088000041F480114FF0000E013C90E645EA060E5F
:108810008DE60CEA135594EA0C0F08BF95EA0C0F8D
:108820003FF43BAF94EA0C0F0AD150EA01347FF4D5
:1088300034AF95EA0C0F7FF425AF104619462CE7AC
:1088400095EA0C0F06D152EA03353FF4FDAE10460F
:10885000194622E750EA410618BF52EA43067FF460
:10886000C5AE50EA41047FF40DAF52EA43057FF4F0
:10887000EBAE12E74FF0FF3C06E000BF4FF0010CFB
:1088800002E000BF4FF0010C4DF804CD4FEA410C5F
:108890007FEA6C5C4FEA430C18BF7FEA6C5C1BD02C
:1088A00001B050EA410C0CBF52EA430C91EA030FAD
:1088B00002BF90EA020F0020704710F1000F91EA0A
:1088C000030F58BF994208BF90422CBFD8176FEAD8
:1088D000E37040F0010070474FEA410C7FEA6C5CA6
:1088E00002D150EA013C07D14FEA430C7FEA6C5CAD
:1088F000D6D152EA033CD3D05DF8040B704700BFD9
:108900008446104662468C461946634600E000BF26
:1089100001B5FFF7B7FF002848BF10F1000F01BDF8
:108920004DF808EDFFF7F4FF0CBF012000205DF8C3
:1089300008FB00BF4DF808EDFFF7EAFF34BF012048
:1089400000205DF808FB00BF4DF808EDFFF7E0FFE1
:1089500094BF012000205DF808FB00BF4DF808ED32
:10896000FFF7CEFF94BF012000205DF808FB00BF99
:108970004DF808EDFFF7C4FF34BF012000205DF87B
:1089800008FB00BF4A0011D212F5001211D20DD51A
:108990006FF47873B3EB62520ED44FEAC12343F005
:1089A000004343EA505323FA02F070474FF00000AF
:1089B000704750EA013002D14FF0FF3070474FF05E
:1089C000000070474FEA4102B2F1E04324BFB3F523
:1089D000001CDCF1FE5C0DD901F0004C4FEAC00236
:1089E0004CEA5070B2F1004F40EB830008BF20F01A
:1089F0000100704711F0804F21D113F13872BCBFD4
:108A000001F00040704741F480114FEA5252C2F128
:108A10001802C2F1200C10FA0CF320FA02F018BF71
:108A200040F001004FEAC1234FEAD32303FA0CFCC4
:108A300040EA0C0023FA02F34FEA4303CCE77FEA53
:108A4000625307D150EA01331EBF4FF0FE4040F49D
:108A50004000704701F0004040F0FE4040F400004C
:108A6000704700BF53B94AB9002908BF00281CBF8E
:108A70004FF0FF314FF0FF3000F0A2B9ADF1080C1C
:108A80006DE904CE00F02AF8DDF804E0DDE9022308
:108A900004B07047D0B500220E4B06460F46FFF7D4
:108AA000D7FCFFF76FFF0446FFF75CFC00220A4B80
:108AB000FFF7CEFC02460B4630463946FFF714FB63
:108AC000FFF760FF2346002242EA000210461946E3
:108AD000D0BD00BF0000F03D0000F0412DE9F0479F
:108AE0008C460E460446089D002B50D18A421746FC
:108AF0006CD9B2FA82FEBEF1000F0BD0CEF1200489
:108B000020FA04F401FA0EF644EA060C02FA0EF713
:108B100000FA0EF44FEA1749220CBCFBF9F01FFAD9
:108B200087F809FB10C642EA064600FB08F3B34289
:108B300009D9F61900F1FF3280F02281B34240F2E8
:108B40001F8102383E44F61AA2B2B6FBF9F309FBC4
:108B5000136642EA064403FB08F8A04509D9E41964
:108B600003F1FF3280F00A81A04540F20781023B09
:108B70003C44C8EB040443EA00400021002D62D0CD
:108B800024FA0EF400232C606B60BDE8F0878B4262
:108B900007D9002D55D0002185E841000846BDE8E1
:108BA000F087B3FA83F1002940F09080B34202D3FA
:108BB000824200F2F880841A66EB03060120B44674
:108BC000002D40D085E81010BDE8F08712B90127CC
:108BD000B7FBF2F7B7FA87FEBEF1000F35D1F31BF2
:108BE0004FEA17481FFA87FC0121B3FBF8F0220C6B
:108BF00008FB103642EA06460CFB00F3B34207D9E5
:108C0000F61900F1FF3202D2B34200F2CE801046D4
:108C1000F61AA2B2B6FBF8F308FB136642EA064462
:108C20000CFB03FCA44507D9E41903F1FF3202D27F
:108C3000A44500F2B5801346CCEB040443EA00409F
:108C40009CE729462846BDE8F087CEF1200106FAC8
:108C50000EF307FA0EF720FA01F94FEA1748CE4053
:108C600049EA0309B6FBF8FA4FEA194408FB1A6609
:108C70001FFA87FC44EA06430AFB0CF29A4200FA08
:108C80000EF40AD9DB190AF1FF3180F087809A428D
:108C900040F28480AAF1020A3B449B1A1FFA89F928
:108CA000B3FBF8F108FB113349EA034301FB0CF66F
:108CB0009E4207D9DB1901F1FF326BD29E4269D97E
:108CC00002393B449B1B41EA0A418EE7C1F1200E69
:108CD00022FA0EF48B40234320FA0EF706FA01F431
:108CE0004FEA134C26FA0EF63C43B6FBFCF9270C70
:108CF0000CFB19661FFA83F847EA064609FB08F7DA
:108D0000B74202FA01F200FA01FA08D9F61809F19D
:108D1000FF3041D2B7423FD9A9F102091E44F61BE8
:108D2000A0B2B6FBFCF40CFB146640EA064704FB59
:108D300008F8B84507D9FF1804F1FF3028D2B84524
:108D400026D9023C1F4444EA0940C8EB0707A0FBB0
:108D500002894F4544464E4614D329D065B3BAEB39
:108D6000040367EB060707FA0EFECB40CF404EEA3E
:108D7000030385E888000021BDE8F0871346F8E684
:108D80001046E0E6B8EB020469EB03060138E5E7BC
:108D90000446D8E7114695E78146C0E78A467CE756
:108DA000023B3C4448E708460AE702383E442FE7C6
:108DB000C245E7D33E46D1E72946BDE8F08700BF6C
:108DC000704700BF024B0A460146186800F04DB8D4
:108DD00030E4032010B5054C13462CB10A46014679
:108DE0000220AFF3008010BD204610BD000000003F
:108DF00010B501390244904207D010F8013B11F838
:108E0000014FA342F7D0181B10BD002010BD10B5B4
:108E1000431E0A44914204D011F8014B03F8014F5C
:108E2000F8E710BD884210B501EB020301D8421EDD
:108E30000BE09842FBD28118D21AD34204D013F827
:108E4000014D01F8014DF8E710BD994204D011F829
:108E5000014B02F8014FF8E710BD0244034693426C
:108E600002D003F8011BFAE7704738B502FB01F4A2
:108E70002146FCF77DFC054618B122460021FFF78C
:108E8000ECFF284638BD000038B5124B1C68A36BB8
:108E90000546D3B91820FCF743FC43F20E33A06318
:108EA00003804AF6CD33438041F2342383804EF26F
:108EB0006D63C3804DF6EC630381052343810B236F
:108EC000838101220023C0E90423A36B00221D61DA
:108ED0005A6138BD30E40320024B0146186800F0A7
:108EE00003B800BF30E4032070B5064608460C46C0
:108EF00000F00DF8451C29463046FCF739FC0646C3
:108F000018B12A462146FFF782FF304670BD03465E
:108F100013F8012B002AFBD1181A0138704710B53D
:108F2000034601448B4204D01A785C1C0AB12346E4
:108F3000F8E7181A10BD000021400D005D400D003B
:108F400089400D008D400D00000000000000000071
:108F50000000000005410D0019410D0074656D70A1
:108F60000068756D696469747900746F67676C6512
:108F70004C6564006C6967687400656E762D766177
:108F80006C730054656D703A2025660048756D69F4
:108F9000646974793A202566006C696768742D6D80
:108FA000657465722F6C6576656C00557074696DBB
:108FB000653A20256400537472656E6774683A20C0
:108FC0000066726565206D656D6F72793A200035B7
:108FD000633162396130642D623562652D346134EC
:108FE000302D386637612D36366233366430613560
:108FF0003137360066646366346133662D336665E7
:10900000642D346564322D383465362D3034626217
:10901000623961653034643400757074696D65005F
:1090200063633937633230632D353832322D34384B
:1090300030302D616465352D31663636316432311C
:109040003333656500737472656E677468006432EB
:109050006232366266332D393739322D34326663E7
:109060002D396538612D34316636313037646630DC
:10907000346300667265654D656D6F72790000003E
:109080000000000000000000D14E0D00ED4E0D006C
:109090000000000000000000014F0D00154F0D0002
:1090A000256C750025303478005C75253034580007
:1090B000747275650066616C736500252E2A660002
:1090C000252E2A6C6600256C66000000000000005A
:1090D000000000004D580D0053580D00D5640D00E0
:1090E0007D580D004F580D000000000000000000EA
:1090F00047580D0061580D00E1650D0081580D00C5
:1091000049580D00000000000000000041580D000B
:109110006F580D00BF5F0D0085580D0043580D00BE
:109120007BE327747BF815ACDD49A913000072F5C9
:10913000776972696E672E626C6500537461727430
:1091400020646973636F766572696E6720736572F8
:1091500076696365732E0053746172742064697359
:10916000636F766572696E672063686172616374AC
:1091700065726973746963732E005065657220644B
:109180006576696365206973206D697373696E67BD
:1091900021004661696C656420746F2061707065A0
:1091A0006E6420706565722043656E7472616C2018
:1091B0006465766963652E00436F6E6E65637465E2
:1091C000642062792043656E7472616C20646576F8
:1091D0006963652E00446973636F6E6E65637465C1
:1091E000642062792072656D6F74652064657669AC
:1091F00063652E0043616E6E6F7420616464206E3F
:1092000065772070656572206465766963652E00F8
:109210004E6577207065726970686572616C20694F
:109220007320636F6E6E65637465642E00466169BA
:109230006C656420746F20617070656E6420646971
:1092400073636F76657265642063686172616374CD
:10925000657269737469632E004661696C65642088
:10926000746F20617070656E6420646973636F76DB
:109270006572656420736572766963652E00466168
:10928000696C656420746F20617070656E64206C19
:109290006F63616C20636861726163746572697386
:1092A0007469632E004475706C6963617465642031
:1092B0006368617261637465726973746963206362
:1092C000616E6E6F742062652061646465642E0057
:1092D0000000000000000000CD680D00D3680D0004
:1092E00029690D00E1680D00CF680D000000000045
:1092F00000000000476F0D003D6F0D00336F0D0043
:10930000296F0D001D6F0D00116F0D00056F0D0011
:10931000FD6E0D00F36E0D00E96E0D00B1720D00D3
:109320000000000000000000656F0D00AF6F0D0031
:10933000876F0D00676F0D008F6F0D00976F0D0029
:109340009F6F0D00A76F0D000000000000000000DF
:1093500001700D00F16F0D00F36F0D006261756417
:109360000053657269616C0053657269616C31000C
:109370007479706500706172616D00636D6400697D
:109380006400686E64007374726D0066696C7400CA
:109390006C766C0061646448616E646C6572007226
:1093A000656D6F766548616E646C657200656E759B
:1093B0006D48616E646C657273004A534F4E53740E
:1093C0007265616D4C6F6748616E646C65720061B7
:1093D000707000253031307520005D20002C200099
:1093E00028293A2000205B00636F6465203D20003F
:1093F00025690064657461696C73203D20000D0A65
:10940000006C6E00666E00636F6465006465746175
:10941000696C006E6F6E6500747261636500696EE1
:10942000666F007761726E006572726F72007061B4
:109430006E696300616C6C000000000000000000B9
:1094400043710D0039710D002F710D0025710D0054
:1094500019710D000D710D0001710D00F9700D00F5
:10946000EF700D00E5700D00B1720D0000000000FE
:109470000000000049720D0053720D005D720D0076
:1094800067720D0071720D007D720D0089720D0002
:1094900095720D009D720D00A7720D00B1720D0046
:1094A0000000000000000000E1740D00E3740D00F6
:1094B0005A00252B3033643A253032750025592D5A
:1094C000256D2D25645425483A254D3A2553257A96
:1094D0000061736374696D650000000000000000A6
:1094E00000000000A5780D00F5780D0003790D004F
:1094F00091730D00B9780D00DB780D00C7780D0071
:10950000EF780D00A7780D00AB780D00000000008B
:1095100000000000E1790D00317A0D003F7A0D0066
:1095200091730D001D7A0D00E3790D00F9790D009E
:109530002B7A0D000F7A0D00DD790D000000000080
:10954000000000004B7B0D00417B0D00377B0D00C0
:10955000ED7A0D002B7B0D001F7B0D00137B0D00A2
:109560000B7B0D00017B0D00F77A0D00B1720D0031
:1095700000000000000000000000000000000000EB
:1095800000000000000000000000000000000000DB
:1095900000000000000000000000000000000000CB
:1095A00000000000000000000000000000000000BB
:1095B00000000000000000000000000000000000AB
:1095C000000000000000000000000000000000009B
:1095D0004300000049460D00E5470D00E9470D0036
:1095E000254C0D00C14E0D0079510D00BD680D00D8
:1095F000516F0D00D5700D00F9710D007D730D00D8
:10960000C5740D005D780D0091780D00557B0D003F
:10961000F97D0D00517E0D00157F0D00997F0D0025
:109620001D800D0000000000000000000000000090
:08963000ACF4FF7F0100000013
:04963800000000002E
:10963C00D1940D000000000070950D0090950D0068
:10964C00B0950D00000000000000000000000000BC
:10965C0000000000D0950D0000000000000000008C
:10966C0000000000000000000000000000000000EE
:10967C0000000000000000000000000000000000DE
:10968C0000000000000000000000000000000000CE
:08969C0000000000D0E30320F0
:1096A400FFFFFFFF00000102030405060708090A83
:1096B4000B0C0D0E0F101112131415161718191A7E
:0896C4001B1C1D1E1F202800C5
:0496CC007856341286
:04000003D0004020C9
:00000001FF
