:02000002D0002C
:1040000000400D0028A30D00000006000C00050173
:08401000040179050000000025
:04401800D09A0D002D
:1040200009480A49884208B505D0094A824202D0A7
:10403000121A05F0B8FC0748074A0021121A05F0C9
:10404000D8FC014808BD00BFC4E2032098A20D00BF
:104050002CE3032030E30320F4E7032070B504F0E1
:10406000DBFB074C074BE41AA40800251E46A542BB
:1040700004D056F8253098470135F8E770BD00BFE9
:1040800084A20D0034A20D0000F0C6B808B500F0FF
:10409000C3F9BDE8084004F08DBB01F0EDBB01F0B1
:1040A000EBBB01F0F1BB01F0EFBB0078B0FA80F0A0
:1040B0004009704701230370704700007FB50D462B
:1040C0001646044604F0A4FA0A4A0296CDE90045D1
:1040D000012103F0DBFC0121072004F0ECFB4FF48D
:1040E000FA7001F042FC0021072004B0BDE87040E6
:1040F00004F0E1BBF49A0D0010B5104C2DED028BCD
:104100009FED0F8AB6EE001AB0EE480AF7EE000AED
:104110000021204600F0E0FC4FF47A7001F025FC0D
:10412000B0EE481AF0EE480AB0EE480A20460021E8
:1041300000F0D2FCBDEC028B012010BD34E3032063
:104140000000000010B5034B0360044600F0F4FECD
:10415000204610BDEC9A0D0010B50446FFF7F2FFA3
:1041600020464FF4987104F020FC204610BD00005A
:1041700010B596B001F0F6FE234A01460DA802F0F4
:1041800033FB0DA801F0A4FF01F0ECFE1F4A01462D
:104190000DA802F029FB0DA801F09AFF01F0E2FE44
:1041A0001B4A01460DA802F01FFB0DA801F090FF6D
:1041B0000DA801F0BAFD174903A801F061FC03A99D
:1041C00008A801F05DFC08A801F098FC044608A8C6
:1041D00044B901F0B0FC16AA022322F84E0D0321C7
:1041E000009406E001F0A9FC00230093024610238E
:1041F00007210DA801F052FD01F0B4FE00220DA927
:1042000001F023FF16B010BD74E3032054E3032034
:10421000A4E303205CE3032010B504F0F9F91E4C7D
:104220004FF4165104F0E8F91C4800F057FD204601
:1042300000F0B2FB9FED1A1A2046F0EE410AB0EEF4
:10424000410A002100F048FC0021132004F022FB69
:10425000002309221349144801F08EFA0023092291
:104260001249134801F088FA124A1349134802F020
:1042700046FC0A21124802F059FCFFF779FF0121A0
:10428000072004F007FB00230E4A4FF48050002162
:10429000BDE8104001F028BA34E3032090E3032086
:1042A0000000000088E303200F9B0D0080E3032043
:1042B000149B0D001D9B0D00F9400D00D36A0D00ED
:1042C00014E70320BD400D0038B5046805467CB1F5
:1042D0006368013B63605BB9236820469B6898472D
:1042E000A368013BA3601BB923682046DB6898479D
:1042F000284638BDF0B50E468FB000210446016057
:10430000416009AD194604A8174601F0B9FB14999C
:10431000284601F0B5FB169B0293159B019320469E
:10432000009504AB3A46314602F0ACF920460FB096
:10433000F0BD000070B504460E46154600F014FFAF
:1043400001223146204600F083FE20463A2100F04B
:1043500021FE2A4620460249BDE8704000F06ABEB0
:104360006F9B0D0030B52DED028BB0EE408AF0EE64
:10437000608AD3B005460C464FF4807212A906A895
:1043800000F0F6FD1E4B06937D227B2106A800F06F
:104390000FFE2A4606A81B49FFF7CCFF22461A4902
:1043A00006A8FFF7C7FF06A800F0DEFE012206A858
:1043B000164900F04DFE3A2106A800F0EBFDB0EEE4
:1043C000480AF0EE680A06A800F0DAFE06A800F037
:1043D00000FE079B03930E4B039A1B780D498DF843
:1043E000003004A83C2302F0AFFC05A8FFF76CFFE7
:1043F00006A8FFF7A7FE53B0BDEC028B30BD00BF8F
:10440000EC9A0D000F9B0D00149B0D00279B0D00D7
:1044100070E303202D9B0D0070B58CB000F0A4FF5D
:104420000446714800F0D8F9704B1A689042014672
:104430000CD018600A2208A803F07FFC089A6C4987
:104440006C4803F041F908A803F0F2FB6A4D2B68B1
:10445000E41AB4F5FA6FC0F0B68000F085FF28606A
:104460006648674C674D00F023FDBDEEC00A634807
:1044700084ED000A00F03EFDFDEEC07A2068C5ED37
:10448000007A17EE906A04F049FD5F4BC3E9000122
:10449000304604F043FD5D4B5D4EC3E9000104F07E
:1044A000B7F823685B4A012103F0F0FA04F0B0F892
:1044B0002B68594A012103F0E9FA132004F014FA99
:1044C00004F02CFD9FED423B9FED434BB0EE431AB1
:1044D000F0EE631A9FED422B41EC100B01F0FCF95A
:1044E0002968206886ED000BFFF73CFF96ED000B76
:1044F000002251EC100B494B8DED020B05F004F836
:104500009DED020B98B1062108A803F029FC444B4D
:10451000089A1B788DF8003042493C2306A802F027
:1045200013FC07A8FFF7D0FE08A803F081FB01F0F9
:1045300019FD01F0A7FD002845D0062000F02AF95A
:104540000CA9002301F8190D0122374801F056FC8F
:10455000212000F01FF90CA9001201F8180D00230A
:104560000122324801F04AFC1A2000F013F90446F7
:10457000192000F00FF90CA9001B41F8100D0023C1
:1045800004222B4801F03AFC04F042F89DF8173061
:10459000284A012103F07AFA04F03AF8264903F098
:1045A000FDF904F035F80A229DF8181003F038FAE6
:1045B00004F02EF8214903F0F1F904F029F80A2259
:1045C000089903F059FA0CB070BD00BFAFF300803A
:1045D0000000000000000000000000000000594042
:1045E0000000000000FEAF40ACE30320B0E3032076
:1045F000369B0D00DCE3032048E3032090E3032017
:104600004CE3032050E3032088E3032080E30320EE
:1046100040E303203F9B0D00489B0D0000004940F4
:1046200070E30320559B0D0074E3032054E3032043
:10463000A4E30320679B0D00729B0D007D9B0D0082
:104640002DE9F043394B3A4D3A4E3B4FDFF8189184
:10465000DFF818818FB001241C7000F08DFE062257
:104660000221364800F034FB23460E220F21284653
:1046700000F0D8F832463249284604F091F9204635
:10468000002101F039F804212E4800F0A3F82E494A
:10469000384609AC01F0DFFA2C4904A8002501F0E6
:1046A000DAFA3946204601F0EBF904AB02958DE8C1
:1046B0003000102226494846FFF71CFE324641468C
:1046C000484604F06DF9DFF8A890224904A801F0EB
:1046D000C2FA3946204601F0D3F904AB02958DE8C1
:1046E000300010221C494846FFF704FE324641467E
:1046F000484604F055F9194904A801F0ACFA3946C6
:10470000174F204601F0BCF904AB02958DE830004C
:10471000102214493846FFF7EDFD3246414638462F
:1047200004F03EF90FB0BDE8F08300BF70E3032052
:1047300034E3032030E303205CE3032090E3032011
:104740003F480D00ACE303208B9B0D00B09B0D0098
:10475000D59B0D00DC9B0D00019C0D000A9C0D00FB
:10476000A4E303202F9C0D0074E30320D1600D000F
:1047700054E3032038B50446C06883180A2B154655
:1047800005D8204405F00FF9E3681D44E5600120D9
:1047900038BD000010B588B0002404AB0122ADF88C
:1047A0000E0000930194094BADF8164011460DF12F
:1047B0000E00ADF81840079400F0B6FF079B0A2BD7
:1047C0000CBFDDF81600204608B010BD75470D007F
:1047D00000F0D2BD0160704710B504460121008889
:1047E00004F058F80021208804F065F8022000F059
:1047F000B3FD0121208804F05EF8052000F0ACFD37
:104800002088002104F057F82088002104F042F8A5
:104810000121208804F07FF83A2390FBF3F010BDCB
:1048200000F0AABD10B504460170427083700121EA
:1048300003EB430005F092F86060204610BD10B510
:104840000446406801F020F8204610BD10B5002154
:104850000446007804F02FF8142000F07DFD207845
:10486000012104F028F81420BDE8104000F074BDC8
:1048700070B506460D46082415F0800F14BF0121BF
:104880000021707804F017F8013C3046FFF7DEFF96
:104890006D0014F0FF04EDB2EED170BD13F0800F87
:1048A000F8B50D46164614BFC021E0215A061F4632
:1048B00058BF41F010013306044658BF41F00801CB
:1048C000700658BF41F004012A0658BF41F00201AA
:1048D0006B0658BF41F001012046FFF7C9FF39467A
:1048E0002046FFF7C5FF31462046FFF7C1FF2946A6
:1048F0002046BDE8F840FFF7BBBF2DE9F84F04465E
:104900000D46002191469A469DF828B0FFF7B0FF6A
:1049100000212046FFF7ACFF00212046FFF7A8FF4B
:1049200000212046FFF7A4FF03274FF001080026CF
:1049300017FB0588A278F3B29A421BD9AB420DD17E
:10494000616815FB07F201F80290626802F808A09E
:10495000022217FB0522616801F802B0606803EBD0
:1049600043014218415C937852782046FFF796FF46
:104970000136DFE720460021FFF77AFF20460021BD
:10498000FFF776FF20460021FFF772FF2046002147
:10499000BDE8F84FFFF76CBF73B5044601210078FE
:1049A00003F078FF0121607803F074FF00252E46A4
:1049B000A378E9B28B4205F1010506D900230096E0
:1049C0001A462046FFF799FFF2E702B070BD0000DB
:1049D000F8B5B5EEC01AF7EE007AF1EE10FA2DED4B
:1049E000048BF0EE418A48BF71EE278AB0EE408A10
:1049F000F4EEE78AF1EE10FAC4BFF7EE007A78EE33
:104A0000E78AB0EE609A18EE900A04F099FA2FA3A4
:104A1000D3E9002304460D4604F058FD60B179EE59
:104A2000487A17EE900A04F08BFA0022264B04F025
:104A3000DBFA22462B4625E0F6EE007AF4EEE78A12
:104A4000F1EE10FA2FD41EA3D3E900232046294605
:104A500004F03CFD50B379EE487A17EE900A04F06A
:104A60006FFA224606460F462B4615A1D1E90001F2
:104A700004F006F902460B463046394604F0B4FA13
:104A8000114B002204F0B0FA044618EE100A0D464D
:104A900004F056FA02460B462046294604F0F2F886
:104AA00004F05CFD04E019EE100A01E018EE100AB3
:104AB000BDEC048B00EE100AF8BD00BFAFF3008020
:104AC000555555555555E53F000018405555555518
:104AD0005555C53F000000002DE9F0432DED048B36
:104AE000F5EE400AF1EE10FA83B080468946F0EE0A
:104AF000409AB0EE609AB0EE418A6ED011EE100A84
:104B000004F01EFAF6EE007AB4EEE78AF1EE10FA3F
:104B100006460F4610D519EE100A04F011FA0022CD
:104B20004D4B04F0AFF832463B4604F05DFA04F01A
:104B300015FD08EE900A03E079EE088AE9EE488A4E
:104B400019EE900A04F0FCF932463B4604460D4645
:104B50003046394604F096F8064618EE900A0F469D
:104B600004F0EEF902460B463046394604F088F868
:104B700004F0F4FC34A3D3E9002309EE100A29461B
:104B8000204604F07FF804F0E9FCF0EE680A01EE3C
:104B9000100AB0EE490AFFF71BFFB0EE691AF0EEFB
:104BA000680AB0EE408AB0EE490AFFF711FF26A36B
:104BB000D3E9002320462946F0EE409A04F060F83D
:104BC00004F0CCFCF0EE680A01EE100AB0EE490ADF
:104BD000FFF7FEFEF0EE408A03E0F0EE418AF0EED1
:104BE000419A19EE900A04F0ABF919A3D3E9002316
:104BF00004F0FAF904F092FCC5B218EE100A04F0C1
:104C00009FF913A3D3E9002304F0EEF904F086FC26
:104C1000C4B218EE900A04F093F90DA3D3E900236F
:104C200004F0E2F904F07AFCC0B200902B46224670
:104C300049464046FFF761FE03B0BDEC048BBDE87A
:104C4000F08300BFAFF30080555555555555D53FFE
:104C50000000000000E06F400000F03F00F08CBB5F
:104C600010B503682F2B044604D9074A00210A20F7
:104C700000F01AFD23681F2B83BF03F01F0323607E
:104C800002484FF0A04010BD59530D0000030050E2
:104C900007B502AB43F8040D1846FFF7E1FF019A90
:104CA00001239340C0F8083503B05DF804FB07B555
:104CB00002AB43F8040D1846FFF7D2FFD0F81035C9
:104CC000019823FA00F000F0010003B05DF804FB46
:104CD00002720122817102747047000010B5002138
:104CE0000446807903F0D6FD074AA37912681B01B8
:104CF000D118D05C4B7803F01F0343EA4010FFF754
:104D0000C7FF0023E36010BDB4E303202DE9F74F94
:104D1000044600F029FBE368834284BF0023E3607C
:104D2000237C33B9E368C01AB0F5FA6F01D20120D1
:104D3000A8E00025554E257400F016FBA3793268D3
:104D4000E0601B01D1182571E570A57065702570B4
:104D5000D05C4B7803F01F0343EA4010FFF798FF45
:104D6000FA2000F002FE0121A07903F093FDA3795F
:104D700032681B01D118D25C4B7802A803F01F03E4
:104D800043EA421340F8043DFFF76AFF019B4FF0EE
:104D9000010808FA03F3C0F80C35142000F0E5FD13
:104DA00002F0D4F9A37932681B01D118D05C4B789A
:104DB00003F01F0343EA4010FFF76AFF282000F0CA
:104DC000CBFA2946A07903F065FD2F464FF0000B82
:104DD000A37932681B01D11812F803A04B7803F0B5
:104DE0001F0343EA4A1A5046FFF761FF5046FFF798
:104DF0005EFF80455FFA8BF908D101200BF1010BB2
:104E000000F0AAFABBF1FF0FE2D1D946A3793268CC
:104E10001B01D11812F803804B7803F01F0343EAFB
:104E200048184046FFF743FF4046FFF740FFB9F1FF
:104E3000FF0F5FFA80F814D0032D0ED9EB070CD4C6
:104E4000FA080137A35C5B00DBB2A354217A494521
:104E50003CBF43F00103A354FFB20135EDB2552D21
:104E6000B4D102F075F9272F0BD922786378217914
:104E70001344A2781344E2781344DBB299423FF41E
:104E800056AF002003B0BDE8F08F00BFB4E30320AD
:104E900010B50446FFF73AFF28B1A37800EE103AA8
:104EA000B8EE400A10BD9FED010A10BD0000C07FA2
:104EB00008B5FFF7EDFFF2EE027A60EE277AB1EE69
:104EC000047A87EE870ADFED027A30EE270A08BD02
:104ED0000000004210B50446FFF718FF28B1237800
:104EE00000EE103AB8EE400A10BD9FED010A10BD69
:104EF0000000C07FFFF7EEBF08B500F03DFA014BA0
:104F0000186008BDB4E3032010B5054B0360037CB3
:104F100004461BB9406808B100F0B6FC204610BD3D
:104F2000449C0D0010B50446FFF7EEFF2046142107
:104F300003F03BFD204610BD10B5034B0360044653
:104F4000FFF7E2FF204610BD549C0D0010B504464B
:104F5000FFF7F2FF2046302103F027FD204610BD69
:104F60000023C36043610376437680F82A3070479C
:104F7000002310B5C36001230374054B03604FF099
:104F8000FF3341608260C362FFF7EAFF10BD00BFDC
:104F9000549C0D00C368826810B593423FBF4268BD
:104FA0005C1CC460D15424BF012380F82A3010BD9A
:104FB00038B54469651C082D09D800EB4403012469
:104FC00045619C76DA76FFF7E5FF204638BD002084
:104FD00038BD10B54369044643B100EB4303597E25
:104FE00009B1FFF7D7FF6369013B6361A368E0681C
:104FF000616898424FF000022ABF5B180A5403F818
:10500000012C10BD70B50446C068A56866682D1AED
:10501000134630440A46294600F046FC85422DBF1F
:10502000E368A368E360C01836BF0123E06084F83A
:105030002A3070BD0EB403B503AA52F8041B0192C6
:10504000FFF7E0FF02B05DF804EB03B0704700002B
:105050002DE9F04104460E46174612B12221FFF712
:1050600099FF0025715D06EB0508002971D0E26803
:10507000A3689A426DD20B0633D501F0F003E02B02
:1050800017D198F8013003F0C002802A11D105F140
:10509000020816F8082002F0C000802809D102F0AA
:1050A0003F029B0142EA013203F47C631A4392B24D
:1050B00011E001F0E003C02B46D105F1010816F81C
:1050C000083003F0C002802A3ED1890101F4F86261
:1050D00003F03F031A4323492046FFF7ABFF454641
:1050E00035E00C2918D00BD8092921D00A2919D06C
:1050F000082929D15C212046FFF74CFF622123E0DB
:1051000022291BD05C2919D00D291DD15C212046F4
:10511000FFF740FF722117E05C212046FFF73AFFBE
:10512000662111E05C212046FFF734FF6E210BE081
:105130005C212046FFF72EFF742105E05C2120460C
:10514000FFF728FF98F800102046FFF723FF0135EE
:1051500088E72FB120462221BDE8F041FFF71ABFB2
:10516000BDE8F081659C0D00426900EB42031A7EA8
:1051700012B100221A7670472C21FFF70BBF0000F6
:1051800007B5C26A002A07DB8DED000B0649FFF761
:1051900051FF03B05DF804FB53EC102B034903B03F
:1051A0005DF804EBFFF746BF7C9C0D00829C0D0070
:1051B00000F0E2B808B5024B1B689B68019308BD7C
:1051C0007802030008B5024B1B681B6D019308BDF4
:1051D0007802030008B5024B1B689B6D019308BD64
:1051E0007802030008B5024B1B681B6E019308BDD3
:1051F0007802030008B5034B1B68D3F8983001937D
:1052000008BD00007802030008B5034B1B68D3F803
:10521000A830019308BD00007802030008B5034BD5
:105220001B68D3F8B430019308BD00007802030076
:1052300008B5034B1B68D3F8D830019308BD0000B4
:105240007802030008B5034B1B68D3F8DC300193E8
:1052500008BD00007802030008B5034B1B68D3F8B3
:10526000EC30019308BD00007802030008B5034B41
:105270001B68D3F8F030019308BD000078020300EA
:1052800008B5034B1B68D3F80031019308BD00003B
:105290007802030008B5034B1B68D3F8043101936F
:1052A00008BD00007802030008B5024B1B685B686C
:1052B000019308BD4802030008B5024B1B689B68B8
:1052C000019308BD4802030008B5024B1B681B6927
:1052D000019308BD4802030008B5024B1B685B69D7
:1052E000019308BD4802030008B5024B1B681B6B05
:1052F000019308BD4802030008B5024B1B685B6CB4
:10530000019308BD4802030008B5024B1B68DB6C23
:10531000019308BD4802030008B5024B1B685B6D92
:10532000019308BD4802030008B5024B1B68DB6E01
:10533000019308BD4802030008B5024B1B685B6877
:10534000019308BD1802030008B5024B1B689B6857
:10535000019308BD1802030008B5024B1B68DB6807
:10536000019308BD1802030008B5024B1B685B6976
:10537000019308BD1802030008B5024B1B681B68A7
:10538000019308BD2C02030008B5024B1B685B6843
:10539000019308BD2C02030008B5024B1B689B68F3
:1053A000019308BD2C02030008B5024B1B68DB68A3
:1053B000019308BD2C02030008B5024B1B681B6952
:1053C000019308BD2C02030008B5024B1B681B6A41
:1053D000019308BD2C02030008B5024B1B685B6AF1
:1053E000019308BD2C02030008B5024B1B681B6B20
:1053F000019308BD2C02030008B5024B1B68DB6C4F
:10540000019308BD2C02030008B5024B1B681B6A00
:10541000019308BD2802030008B5024B1B685B6AB4
:10542000019308BD2802030008B5024B1B689B6A64
:10543000019308BD2802030008B5024B1B68DB6A14
:10544000019308BD2802030008B5024B1B681B6BC3
:10545000019308BD2802030008B5024B1B685B6B73
:10546000019308BD2802030008B5024B1B681B6CA2
:10547000019308BD2802030008B5024B1B681B6995
:10548000019308BD6C02030008B5024B1B685B6901
:10549000019308BD6C02030008B5024B1B689B69B1
:1054A000019308BD6C02030008B5024B1B685B6DDD
:1054B000019308BD6C02030008B5024B1B689B6D8D
:1054C000019308BD6C02030008B5024B1B685B69C1
:1054D000019308BD6402030008B5024B1B689B6979
:1054E000019308BD6402030008B5024B1B681B6AE8
:1054F000019308BD6402030008B5024B1B685B6A98
:10550000019308BD6402030008B5024B1B689B6A47
:10551000019308BD6402030008B5024B1B689B6839
:10552000019308BD6802030008B5024B1B68DB68E5
:10553000019308BD6802030008B5024B1B685B6855
:10554000019308BD3802030008B5024B1B689B6934
:10555000019308BD3802030008B5024B1B68DB69E4
:10556000019308BD3802030008B5024B1B68DB6AD3
:10557000019308BD3802030008B5024B1B685B6B42
:10558000019308BD3802030008B5024B1B689B6BF2
:10559000019308BD3802030008B5024B1B68DB69A4
:1055A000019308BD3002030008B5024B1B681B6A5B
:1055B000019308BD3002030008B5024B1B681B684D
:1055C000019308BD3C02030008B5024B1B68DB6871
:1055D000019308BD3C02030008B5024B1B681B6920
:1055E000019308BD3C02030008B5024B1B685B69D0
:1055F000019308BD3C02030008B5024B1B689B6980
:10560000019308BD3C02030008B5024B1B68DB692F
:10561000019308BD3C02030008B5024B1B681B6ADE
:10562000019308BD3C02030008B5024B1B689B6A4E
:10563000019308BD3C02030008B5024B1B681B68C0
:10564000019308BD4C02030008B5024B1B685B6860
:10565000019308BD4C02030008B5024B1B681B698F
:10566000019308BD4C02030008B5024B1B685B693F
:10567000019308BD4C02030008B5024B1B689B69EF
:10568000019308BD4C02030008B5024B1B68DB699F
:10569000019308BD4C02030008B5024B1B681B6A4E
:1056A000019308BD4C02030008B5024B1B685B6BFD
:1056B000019308BD6002030008B5024B1B681B6D17
:1056C000019308BD6002030008B5024B1B685B68CC
:1056D000019308BD2002030008B5024B1B685B69FB
:1056E000019308BD2002030008B5024B1B681B6A2A
:1056F000019308BD2002030008B5024B1B68DB6A5A
:10570000019308BD2002030008B5024B1B68DB6C47
:10571000019308BD2002030008B5024B1B685B6DB6
:10572000019308BD2002030008B5034B1B68D3F8A2
:105730008430019308BD00002002030008B5034B2C
:105740001B68D3F88830019308BD000020020300D5
:1057500008B5034B1B68D3F89430019308BD0000D3
:105760002002030008B5034B1B68D3F8A430019353
:1057700008BD00002002030008B5024B1B681B682F
:10578000019308BD4402030008B5024B1B685B6827
:10579000019308BD4402030008B5024B1B685B6916
:1057A000019308BD4402030008B5024B1B681B6A45
:1057B000019308BD4402030008B5024B1B68DB6B74
:1057C000019308BD4402030008B5024B1B681B6C23
:1057D000019308BD4402030008B5024B1B685B68D7
:1057E000019308BD4002030008B5024B1B689B688B
:1057F000019308BD4002030008B5024B1B68DB683B
:10580000019308BD4002030008B5024B1B681B69E9
:10581000019308BD4002030008B5024B1B685B6999
:10582000019308BD4002030008B5024B1B689B6949
:10583000019308BD4002030008B5024B1B68DB69F9
:10584000019308BD4002030008B5024B1B681B6AA8
:10585000019308BD4002030008B5024B1B681B6B97
:10586000019308BD4002030008B5024B1B685B6B47
:10587000019308BD4002030008B5024B1B681B687A
:10588000019308BD1C02030008B5024B1B685B684E
:10589000019308BD1C02030008B5024B1B689B68FE
:1058A000019308BD1C02030008B5024B1B685B6A2C
:1058B000019308BD1C02030008B5024B1B68DB6A9C
:1058C000019308BD1C02030008B5024B1B681B6B4B
:1058D000019308BD1C0203002DE9F04F2DED028B52
:1058E000B0EE448AF0EE648A55EC114B57EC126B23
:1058F00083B011EE102A2B4612EE100A39468DEDB8
:10590000000B5BEC13AB03F0D7FD9DED000B38BB38
:1059100051EC100B22462B4603F0B2F9524680465A
:1059200089465B4651EC180B03F0AAF902460B4678
:105930004046494603F058FB2246804689462B469E
:105940003046394603F09CF902460B46404649462C
:1059500003F074FC52465B4603F094F941EC100BE3
:1059600003B0BDEC028BBDE8F08F0021FFF7B4BEA1
:1059700010B5836804460BB903F033F8C368984741
:10598000A3681BB1032221462046984720461021D8
:10599000BDE8104003F009B8704700207047704719
:1059A0000020704770470020704710B5142104464E
:1059B00002F0FBFF204610BD10B51421044602F092
:1059C000F4FF204610BD10B51421044602F0EDFF8F
:1059D000204610BDFEF765BBFEF763BBFEF761BB5B
:1059E00008B50A20024A0021FFF75EFE08BD00BF8D
:1059F00059530D00A0F13003DAB2092A01D8184634
:105A00007047A0F16103052B01D857387047A0F10A
:105A10004103052B94BF37384FF0FF30704700002B
:105A200010B500230370044B04461868FFF76CFCA4
:105A300001232370204610BDC4E3032010B5037872
:105A400004461BB1024B1868FFF766FC204610BDE8
:105A5000C4E3032008B582798B799A4206D10622E5
:105A600003F092FFB0FA80F0400908BD002008BDA5
:105A700010B514220446002103F0BBFF204610BDE0
:105A800010B5034601F1140251F8044B43F8044BDE
:105A90009142F9D110BD70B50C4605461646FFF788
:105AA000E7FF2CB910222146284603F0A2FF16E09A
:105AB000012E09D12B4604F1100254F8041B43F8BF
:105AC000041B9442F9D108E06A1E0F23E15C02F83E
:105AD000011F013BDBB2FF2BF8D101232B742846B9
:105AE00070BD38B5044615461A46FFF7D4FF257336
:105AF00001232D0A65732374204638BD037C13F0FF
:105B0000FD0F14BF0120002070471FB50446FFF7AA
:105B1000F5FF08B9208809E010220021684603F04B
:105B200068FF10226946204603F02EFF003018BFA0
:105B3000012004B010BD00887047704710B50346BF
:105B400001F1140251F8044B43F8044B9142F9D18E
:105B500010BD10B551B1034601F1100251F8044BCC
:105B600043F8044B9142F9D10123037410BD10B5E1
:105B70000446FFF7C3FF28B9088823881B1A584238
:105B8000584110BD1022204603F0FEFEB0FA80F00E
:105B9000400910BDF7B505460E4619B9102203F0AD
:105BA00028FF51E02421304603F085FF042802D06D
:105BB000002710243BE03078FFF71CFF041E47DB72
:105BC0007078FFF717FF002842DB40EA04108DF8D9
:105BD0000400B078FFF70EFF041E39DBF078FFF702
:105BE00009FF002834DB40EA04109DF80430C0B2FD
:105BF00040EA03202880002327E02CB3F05DFFF764
:105C0000F9FE030612D4013C000128552421304638
:105C100003F051FF0137874208D2F05DFFF7EAFE3B
:105C200040B20028A2BF2B5D18432855013724211C
:105C3000304603F040FF8742DFD32C440023A542C7
:105C400002D004F8013DFAE701232B7403B0F0BD44
:105C500000232B80CFE738B504460D46FFF708FF39
:105C600020462946FFF796FF204638BDF0B58BB198
:105C70000024E51C8D420FD8661C055D875D9742A8
:105C800005D12E44B14207D31C60681CF0BD01351C
:105C90002C44EEE71846F0BD0020F0BD2DE9F74397
:105CA00004460E461D461746002A3AD00A4601AB66
:105CB000016AFFF7DBFF9DF82830226A03BBF8B1C9
:105CC000961C2E44361A1F2E2BD8DDF8048008F1BE
:105CD0000209C8EB0202121A00EB080105EB0900E9
:105CE00092B22144204403F069FE6B1C04F8083092
:105CF0002A46394604EB090003F055FE266210E0FF
:105D0000901C2B181F2B0CD86B1CA3542244206210
:105D10003946567020442A4603F045FE226A2A443A
:105D20002262206A03B0BDE8F0831FB50446034633
:105D300000F11F02002003F8010B93424FF0000115
:105D4000F9D104AA062302F8013D01232162009142
:105D500020461946FFF7A2FF204604B010BD73B5D8
:105D60000A460E4601AB016A0446FFF77FFF05466F
:105D700078B10198226A2918121A521B2144204432
:105D800003F011FE236A5D1B256231462046FFF7B2
:105D9000E6FF02B070BD000038B500254FF6FF7376
:105DA000044643800E22294605700571063003F033
:105DB00020FE04F11400FFF75BFE04F12800FFF75A
:105DC00057FE044904F13C0001F079FFE5642565C4
:105DD000204638BDBC9F0D0010B58369C26903EB36
:105DE000C2029342184606D0046824888C4203F10C
:105DF0000803F6D110BD002010BD00002DE9F341CD
:105E000080461E460F46002947D0002A45D0056827
:105E1000F42A2B7828BFF42214463BB32B79980739
:105E200006D50023A889FFF7F9F9002801DA43E035
:105E30000020D8F800502A79D3060AD516F0FD03C1
:105E400007D1A8892246394602B0BDE8F041FFF7E4
:105E500017BA012E30D191062ED5A88900232246EB
:105E6000394602B0BDE8F041FFF714BA68884FF632
:105E7000FF73984213D02B795A0709D516F0FD020B
:105E800006D1A989009223463A46FFF7DBF913E0D1
:105E9000012E07D11B0708D404E009480CE06FF07D
:105EA000D10009E06FF0770006E00023A989009394
:105EB0003A462346FFF7BCF902B0BDE8F08100BFC7
:105EC000F2FEFFFF10B50A6852F8023F0360536804
:105ED000436010BD1FB502680B6812881B889A4288
:105EE0000C460CD101466846FFF7ECFF214602A89C
:105EF000FFF7E8FF02A96846FFF7ACFD00B90020F4
:105F000004B010BD10B504463420FEF7C6F80146B3
:105F100068B10023036043608360C3600361436131
:105F20008361C361036243628362C362036321606E
:105F300019B90A4A0A20FFF7B7FB0020FFF73AF920
:105F400020B1064A00210A20FFF7AEFB002221689B
:105F50000348FFF78BF9204610BD00BF59530D00D1
:105F600031630D0010B50A4C2368DB070ED42046C0
:105F7000FEF79BF850B10748FFF7C4FF2046FEF735
:105F800099F8054A0549034802F00AFD014810BD89
:105F9000BCE30320B8E3032030E3032045610D0098
:105FA00070B504468CB003A80E46FFF739FD236890
:105FB000093B012B19D8FFF7D5FFA1880068FFF72F
:105FC0000BFF024658B9202304930A4B0590009317
:105FD00004AA034608493220FFF76EFB05E0F56C82
:105FE0001DB1336DE1682069A84703A8FFF726FDBE
:105FF0000CB070BD369D0D00EC9C0D00084609B933
:106000000A4601E0096A0022FFF7DCB810B50C4629
:1060100011B90A46084606E001212046FFF79FFE17
:10602000216A00222046BDE81040FFF7D3B813B51F
:1060300001A8FFF7F5FC0020FFF7D4F8044601A8FB
:10604000FFF7FCFC204602B010BD73B505460C46B8
:1060500001A81646FFF7E4FC21462846FFF7CEFFCD
:10606000002808DB31462846FFF7D0FF002802DB76
:106070002846FFF7DCFF044601A8FFF7DFFC2046B7
:1060800002B070BD0368D8690028D4BF0020012089
:1060900070470B68036013B15A6801325A60704749
:1060A00010B551F8043B044640F8043BFFF7F1FFFC
:1060B00023680BB9FFF794FC204610BD10B551F8CA
:1060C000043B044640F8043BFFF7E3FF204610BDC5
:1060D00010B504460430FEF7F7F8204610BD70B541
:1060E00004684368054604EBC306A64204D0201D9D
:1060F000FEF7EAF80834F8E72868FFF7C5FB2846FA
:1061000070BD70B504684368054604EBC306A6423B
:1061100004D0201DFEF7D8F80834F8E72868FFF708
:10612000B3FB284670BD10B5046904F11800FFF7F1
:10613000E8FF04F10C00FFF7D2FF2046BDE8104055
:10614000FDF7AFBFF8B504680746C4B1A569E369B8
:1061500005EBC306AE4204D0281DFEF7B5F808359E
:10616000F8E7A069FFF790FB04F10C00FFF7C9FF07
:106170002046FFF7B4FF3421204602F016FC3846D3
:10618000F8BD000073B50025056045600646242073
:10619000FDF783FF044678B103464FF6FF7223F8FC
:1061A000022BC0F802505D608572C572C560056142
:1061B00045618561C5610562002314200193FDF7E7
:1061C0006CFF034628B1012242608260084A0260E7
:1061D000046102A8726840F8042D73603460FEF711
:1061E00073F833680BB9FFF7FBFB304602B070BDA4
:1061F000C89C0D00884270B515461AD9904219D234
:10620000A1F10806511A0439151F44182B1F9E428C
:1062100025D0042C07D055F8043C44F8043C29460A
:106220002046FFF736FF2846FEF74EF8083D083CAB
:10623000ECE714D00C1D061D231F9D420FD0042E29
:1062400007D054F8043C46F8043C21463046FFF79A
:1062500020FF2046FEF738F808340836ECE770BD1A
:106260002DE9F041046843680546884604EBC307FE
:10627000A74218D041462046FFF72CFE064608B933
:106280000834F5E78CB1201DFEF71EF82B686A680C
:1062900004F1080103EBC2022046FFF7ABFF6B6875
:1062A000013B6B6002E0002600E026463046BDE878
:1062B000F081F7B5044651F8043B4768009301A804
:1062C000FFF7E7FE6668A3689E4214DB0136002EE6
:1062D0000BDDF000FFF7D0FA054618B394E806008E
:1062E00001EBC202FFF786FF00E000252068FFF700
:1062F000CBFA2560A6602668626806EBC70506EB48
:10630000C202294605F10800FFF774FF35B1009B72
:1063100046F8373001A9281DFFF7BBFE636801333B
:106320006360012501A8FDF7CFFF284603B0F0BD4B
:106330002DE9F04104468EB003A80D46FFF770FB2F
:106340002368032B02D0042B42D087E004A8FFF778
:1063500019FF049B22891A806268049952F8083F49
:10636000C1F802305368C1F8063007A8049B0693B1
:1063700005A9FFF78EFE06A905F11800FFF799FFA2
:10638000044607A8FDF7A0FF2023069374B9364BF7
:10639000009306AA2346354907943220FFF78CF96B
:1063A000049B21461888FEF725FF0DE0304A009235
:1063B000002306AA2D4907930120FFF77DF96B6A98
:1063C00013B1E96A04A8984705A8FDF77DFF45E0E9
:1063D00021892846FFF700FD074600283ED00468C3
:1063E000A369E1694FF6FF72228003EBC101994274
:1063F00003D053F8080B4280F9E7E668236906EBFF
:10640000C308B04504D0301DFDF75EFF0836F8E73D
:1064100000232361A669E36906EBC308B04504D0F5
:10642000301DFDF751FF0836F8E70023E361A37242
:10643000E372AB6A13B1296B3846984720230D4AA3
:1064400006930092002309490793012006AAFFF74B
:1064500033F9394605F11800FFF702FF03A8FFF7EB
:10646000EDFA0EB0BDE8F0814E9D0D00EC9C0D00E4
:10647000749D0D00919D0D008842F8B506460C46AE
:10648000154614D9904213D2A2F108056C1AA1F155
:1064900008070444AF4218D01CB129462046FFF734
:1064A0000DFE281DFDF710FF083D083CF2E70CD05B
:1064B000AC420AD01EB121463046FFF7FFFD201D39
:1064C000FDF702FF08340836F2E7F8BD70B50E1E7E
:1064D00005460BDDF000FFF7CFF9044670B195E8F3
:1064E000060001EBC202FFF7C7FF00E000242868A6
:1064F000FFF7CAF92C60AE60012070BD70BD73B5A6
:10650000044645686846FFF7D9FD6168A36899426B
:1065100005DB01312046FFF7D9FF064698B1236815
:10652000626803EBC50503EBC202294605F10800CA
:10653000FFF7A2FF1DB169462846FFF7BFFD63685C
:1065400001336360012601A8FDF7BEFE304602B0AC
:1065500070BD8842F8B506460C46154614D99042DF
:1065600013D2A2F108056C1AA1F108070444AF4246
:1065700018D01CB129462046FFF792FD281DFDF7D3
:10658000A3FE083D083CF2E70CD0AC420AD01EB195
:1065900021463046FFF784FD201DFDF795FE0834A7
:1065A0000836F2E7F8BD70B50E1E05460BDDF000AB
:1065B000FFF762F9044670B195E8060001EBC202EC
:1065C000FFF7C7FF00E000242868FFF75DF92C60A3
:1065D000AE60012070BD70BD73B504464568684665
:1065E000FFF75EFD6168A368994205DB0131204633
:1065F000FFF7D9FF064698B12368626803EBC5052B
:1066000003EBC202294605F10800FFF7A2FF1DB106
:1066100069462846FFF744FD63680133636001263D
:1066200001A8FDF751FE304602B070BD10B504461A
:10663000406808B1FDF735FD204610BD07B5036978
:106640000C308DE8090003F13C0001F0F1FA6846D6
:10665000FFF7ECFF03B05DF804FB000038B5002342
:106660000446036014200D46FDF717FD28B10123F1
:1066700043608360024B036005612060204638BDA3
:10668000909C0D002DE9F04188B005461E4654202F
:1066900000230F46904604930593FDF7FEFCCDF8CA
:1066A00018D004460790B0B1FFF776FB394604F1E5
:1066B0003C0084F8048001F02FFB0F9BE36431461B
:1066C000109B236504F11400FFF738FA0E9904F1CA
:1066D0002800FFF733FA2146002601AB02AA03A8DF
:1066E0000796FFF7BBFF039B059A039203A8059348
:1066F0000494FDF7E9FD06A8FFF798FF049B2968BD
:10670000059A2B6008A86B6806916A6040F8043D02
:1067100005960496FDF7D8FD05A8FDF7D5FD296877
:1067200019B9034A0A20FEF7BFFF08B0BDE8F0819F
:1067300059530D0010B50446406808B1FDF7B1FC8F
:10674000204610BD07B503690C308DE80900684686
:10675000FFF7F0FF03B05DF804FB000038B500233D
:106760000446036014200D46FDF797FC28B1012371
:1067700043608360024B036005612060204638BDA2
:10678000AC9C0D00F0B5002687B00660466004465C
:1067900018200F46FDF781FCCDF810D00546059076
:1067A00038B1FFF765F939462846AE82EE82FFF729
:1067B000C5F900232946059302AA01AB03A8FFF7F8
:1067C000CDFF039B62682560636003A80392FDF719
:1067D0007BFD04A8FFF7AEFF23680BB9FFF700F9B4
:1067E000204607B0F0BD00002DE9F04F17469FB0DE
:1067F000804605A80E46FFF713F93C682379002B65
:1068000000F0F3803368DD681B6905EBC303039375
:1068100004F1140A04F1280B039BAB4223D0D5F8F2
:106820000090504609F11401FFF7A1F9002800F08B
:10683000E18009F128015846FFF799F9002800F096
:10684000D980236823F47F41D9F8003023F47F43B3
:10685000994240F0CF8020236B4A1393002300928B
:10686000149313AABDE004F128052846FFF74DF95B
:1068700018B966492846FFF76CF93368D3F80090D9
:106880005B6809EBC30AD145294608D0D9F8000056
:10689000FFF76DF9002837D109F10809F3E706A8D9
:1068A000FFF770FF13AA2B4604F1380C96461868C0
:1068B0005968154603C5083363452A46F7D1186859
:1068C0002860069A0023143271460120FEF79CFCD2
:1068D00000287ED1356806A90BA8FFF7EFFB2846F4
:1068E0000BA9FFF70CFE05460CA8FDF7EDFC002DEB
:1068F0006FD032685368126803F10053013B07A858
:1069000002EBC309FDF7E0FC04F114052846FFF78C
:10691000FCF868B93E4B3D491A88013292B21A80A0
:1069200013A80123FFF7DDF813A92846FFF706F99E
:106930004FF02C0A5246002113A803F05AF8012305
:1069400006AAADF84C30ADF84EA02B4604F1240C4D
:106950001546186859689646AEE803000833634543
:106960007246F6D11868CEF800000FCD0DF1580E22
:10697000AEE80F002B68CEF8003023798DF8503048
:10698000D9F800309B8AADF86C30E36B1593002288
:10699000204B1C93A11D13A81D94FEF75DFC20BB8A
:1069A00001232370346839460C340BA8FFF778FBB9
:1069B00020460BA9FFF710FE04460CA8FDF784FC47
:1069C0009CB920230B93144B00930C9423460BAAE1
:1069D00007E039464046FFF763FB07A8FDF774FC64
:1069E0000AE00E493220FEF767FE39464046FFF7BF
:1069F00057FB01E008350FE705A8FFF71FF84046F1
:106A00001FB0BDE8F08F00BF619E0D00DC9C0D0043
:106A1000C0E30320A15F0D003A9E0D00EC9C0D0029
:106A2000024800230360FEF767BC00BFC4E30320F5
:106A300070470020704710B51021044601F0B5FFE3
:106A4000204610BD08B508B1FFF7F5FF08BD10B529
:106A50008368044613B1032201469847204610BDBF
:106A60000022026010B54FF69C728280B1F904409A
:106A700084808A8002680C6804600A6010BD10B5CA
:106A800004460068FEF700FF204610BD38B5C46814
:106A9000F4B12378022B03D104F10C00FFF7EFFFD0
:106AA000656835B12846FFF7D2FF1021284601F06E
:106AB0007CFFA56835B12846FFF7C9FF102128469D
:106AC00001F073FF20461421BDE8384001F06DBF8E
:106AD00038BD10B588B00446684601F0F0F8694644
:106AE00004A801F00EF904A8A047044604A801F088
:106AF0009FF8684601F09CF8204608B010BDF0B53C
:106B0000102485B007460E461546002122466846E9
:106B100002F06FFF002269461046ADF80040029770
:106B200003960195FEF730FE05B0F0BD0846002142
:106B3000FEF74ABE13B5044691E8050000234B60FA
:106B40000B602060626001A801930093FDF7BCFB1D
:106B5000204602B010BDF7B50C4602AD54F8043B18
:106B600045F8083D06460F4601A82146FFF791FA71
:106B700029463046FFF7DEFF01A8FDF7A5FB2046BA
:106B8000FDF7A2FB3846082101F00FFF304603B0A5
:106B9000F0BD13B50B46044603C88DE8030093E827
:106BA000030084E803009DE8030083E8030002B0CB
:106BB00010BD000038B500230446036010200D46C8
:106BC000FDF76BFA28B1012343608360024B036039
:106BD000C5602060204638BD949E0D00826810B5C7
:106BE0000AB901F0FEFEC368BDE81040184708B5B9
:106BF000006800F11001FFF7F1FF08BD826810B5D1
:106C00000AB901F0EEFEC368BDE81040184708B5A8
:106C1000006800F11001FFF7F1FF08BD38B500234F
:106C200083608B6804460D462BB102229847EB68BF
:106C3000E360AB68A360204638BD0000F0B589B0C2
:106C400004686846FFF70CFF00238DF808304FF00A
:106C50000202D4E84F3F002B03D1C4E8412F0029A2
:106C6000F7D102D08DF8083063E014F10C0503D0A1
:106C700069462846FFF7F4FEBFF35F8F0123637078
:106C8000002004F10803BFF35F8F53E8006F43E86F
:106C90000002002AF9D1BFF35F8F002E49D0FEF722
:106CA00033FD20B129463046FFF798FF3AE03146E0
:106CB00002A8FFF7B3FFE068B4F9105008B102F082
:106CC000D7FE06901020ADF81C50FDF7E6F90546FA
:106CD000E8B1002787601820FDF7DFF9044688B186
:106CE0000146876002A8FFF754FF049BA268A360D7
:106CF000059B049206A9E268E36004F11000059286
:106D0000FFF7AEFE0D4BEB600D4B2C60AB6006A8A1
:106D1000FFF7B5FE02A8FFF79AFE002229460948B0
:106D2000FEF7FAFC3046FFF792FE1021304601F0E4
:106D30003CFE6846FFF7A3FE09B0F0BDEF6B0D0007
:106D4000656E0D0071590D002DE9F04F8BB00646B0
:106D50000F46904699469DF850A0FEF71DFD07ADE1
:106D6000834630BB4FF62E73059005A92846ADF833
:106D70001830FFF775FE1420FDF78FF9044658B15F
:106D80000223037001234370C0F804B0C0F808B0B8
:106D900029460C30FFF764FE3046214640F8044B8C
:106DA000FFF708FF2846FFF76AFE05A8FFF767FE12
:106DB00052E000240C2314206C60AC600793FDF7B4
:106DC0006CF9014618B1047044704460846004A8F2
:106DD0000391FFF7EFFE224B08930820FDF75DF9C2
:106DE000044628B1039B40F8043B04A9FFF751F97E
:106DF00000955FFA8AF34A46414638460994FEF701
:106E0000D3FC20B9039B5B7803F0FF0283B1039BA3
:106E1000059304A906A8FFF73CF905A93046FFF73A
:106E200089FE06A8FDF750FA04A8FDF74DFA13E015
:106E30004FF69C7305A903A80592ADF81830FFF72B
:106E4000FDFE05A8FFF71BFE05A80999FFF783FEC5
:106E500006A8FDF739FADAE730460BB0BDE8F08F47
:106E6000D56F0D00022AF8B5044606D0032A17D0C4
:106E7000012A22D10B6803601FE018200E68FDF77D
:106E80000CF9054650B13146FFF7C8FE3069B6F936
:106E9000147008B102F0ECFD2861AF8225600CE0AF
:106EA000046854B104F11000FFF7E9FD2046FFF734
:106EB000CEFD1821204601F078FD0020F8BD38B540
:106EC000002383608B6804460D462BB1022298474D
:106ED000EB68E360AB68A360204638BD022A70B55A
:106EE000044606D0032A11D0012A18D10B6803608A
:106EF00015E014200E68FDF7D0F8054620B13146A4
:106F0000FFF7DDFF337C2B74256008E0046834B1A3
:106F10002046FFF79CFD1421204601F046FD00208D
:106F200070BD0000F0B5002387B00C46BFF35F8F43
:106F300050E8006F40E80032002AF9D1BFF35F8FBC
:106F4000002E3FD01846FEF7DFFB074620B1214652
:106F50003046FFF753FE2EE0314601A8FFF7AFFFA2
:106F600023788DF814301020FDF797F80546D0B13E
:106F700087601420FDF791F8044678B187600146D8
:106F800001A8FFF706FE039BA268A360049B03927F
:106F9000E268E3609DF81430049223740A4BEB60BE
:106FA0000A4B2C60AB6001A8FFF751FD0022294677
:106FB0000748FEF7B1FB3046FFF749FD1021304688
:106FC00001F0F3FC07B0F0BD0F6C0D00DD6E0D009D
:106FD00071590D0030B585B004460D46684611461E
:106FE000FFF7B9FD7CB124B228460DB102F040FD97
:106FF000029002A96846ADF80C40FFF71FFE02A8F8
:10700000FFF73DFD1DE000988DF808404FF00102AC
:10701000D0E84F3FA34203D1C0E8412F0029F7D168
:1070200002D08DF808300CE010F10C014FF0010394
:1070300018BF0373BFF35F8F043000F8033CFFF702
:1070400071FF01A8FDF740F905B030BD00221146DF
:107050004068FEF7F9BB002211464068FEF704BC09
:1070600000224068FEF7F8BB002281F00101406871
:10707000FEF7E2BB00231A4619464068FEF7D4BB70
:1070800000231A4619464068FEF7C6BB0022114687
:107090004068FEF7B9BB002211464068FEF7A4BB6A
:1070A000002202214068FEF7A7BB00231A46406871
:1070B000FEF792BB024B03225A60024A1A607047E5
:1070C000C8E30320B09E0D007047F8B5064615468C
:1070D0000C468F18BC4206D0336814F8011B9B681D
:1070E00030469847F6E72846F8BD0022007CFEF7B8
:1070F0008BB90021007CFEF78FB90021007CFEF7E0
:1071000093B90021007CFEF797B90021007CFEF7BF
:107110009BB910B51421044601F047FC204610BD70
:1071200010B504464FF47A730846A3600021044B5F
:10713000207461602360FEF797F9204610BD00BF00
:10714000E49E0D000021007CFEF786B9FEF744B9ED
:10715000FEF73AB9704710B51821044601F025FC36
:10716000204610BDF0B5037D062B8DB00E4600F114
:1071700004074FF0000402D000F1080518E00CAD40
:10718000394605F8304D2F232A460A20FEF79CF990
:10719000284602F088FC33680246DB682946304600
:1071A00098470FE024B12E21304600F0FBFB044449
:1071B00015F8011D0A22304600F030FCBD4204449F
:1071C000F0D120460DB0F0BD10B5054B044611229C
:1071D00040F8043B002102F00CFC204610BD00BF2B
:1071E0000C9F0D000346074A10B543F8042B01F12C
:1071F000100251F8044B43F8044B9142F9D10A783C
:107200001A7010BD0C9F0D00037D042B01D1406846
:1072100008E0062B0AD1436853B9836843B9C368B1
:1072200033B90069003018BF012070470020704753
:107230000120704710B59DF8084044EA032343EA53
:10724000024242EA016104234160037510BD37B573
:107250000D788B784A78C97800912946FFF7EAFFC4
:1072600003B030BD0068FEF74FB80000014B024A82
:107270001A607047D0E303208B9F0D0010B50123E7
:107280000374836804460BB1C06806E0006828B147
:1072900083680BB901F0A5FBC368984701236374A9
:1072A0000020BDE81040FEF73FB8002211464068BC
:1072B000FEF7CABA002211464068FEF7D5BA00228E
:1072C0004068FEF7C9BA002281F001014068FEF76C
:1072D000B3BA00231A4601214068FEF7A5BA00237D
:1072E0001A4619464068FEF797BA002211464068D0
:1072F000FEF78ABA002211464068FEF775BA0022EE
:1073000002214068FEF778BA00231A464068FEF76B
:1073100063BA38B5054688B104684CB1A3681BB19F
:1073200003222146204698471021204601F03DFBCC
:1073300028461421BDE8384001F037BB38BD10B1F4
:1073400003685B681847704710B503680446BBB113
:107350005868FDF7B1FF78B923685A7C12B95868AC
:10736000FDF7B2FF23685868FDF7B6FF20680023D9
:10737000236028B1FFF7CDFF206808B1FFF7C9FFF0
:10738000204610BD38B50C4B03600446D0F8CC0144
:1073900008B1FCF788FED4F8C45135B12846FFF790
:1073A000D3FF0421284601F000FBA06808B1FFF7D5
:1073B000C6FF204638BD00BFFC9F0D002DE9F341FC
:1073C000044608460D46904602F06DFB04F5DC7657
:1073D0000746236CABB14021204602F06CFB87428C
:1073E00002460BD32946204602F0CEFA30B900906F
:1073F00043462A4621465820FEF7B4F95834B44291
:10740000E7D102B0BDE8F08130B58DB0044611225D
:10741000002101A802F0EDFA062301AA09498DF81E
:1074200014300A20FEF758F807AD01A906A8FFF7A7
:10743000D9FE0FCD04340FC42B68237000200DB08B
:1074400030BD00BF28A00D002DE9F041054600F534
:10745000E0768AB03046FFF705FF2C68D5F8C0010A
:10746000FDF75AFF002C63D0D5F8C43163B123680F
:10747000D5F8C4111F6B20464FF47A734FF49A620B
:10748000B847041E13DC56E02D494FF49A6001F012
:10749000A6FAD5F8C431C5F8C40113B11846FCF7F3
:1074A00002FED5F8C431002BE1D1264844E0202368
:1074B000254A029300920023019402AA23490393D0
:1074C0000120FEF7F9F8D5F8C4315F1C1B786BBBBF
:1074D000013C2146384602F0EEFA38B3241A002C5B
:1074E00007EB000822DD3B5C03BB013C0ED008F13A
:1074F00001082146404602F0DEFA241A002C15DD70
:1075000018F8003093B9012C02D00FE0DFF8448066
:107510003046FFF7A7FE42463946281DFFF74EFFCB
:10752000D5F8C001FDF7F8FE002005E0084803E0AB
:107530006420FDF709FF20460AB0BDE8F08100BFD6
:10754000CCA10D00FCFEFFFF3CA00D0035A00D00FE
:10755000E8FEFFFFBC9F0D0010B50446BFF35F8F30
:1075600094F8C831BFF35F8F1BB92046FFF76CFF5B
:10757000F4E710BD10B50468016044B12046FFF780
:10758000E3FE20460421BDE8104001F00EBA10BD14
:107590002DE9F04105468AB000F5E070FFF762FE84
:1075A0002C68002C7BD14C20FCF777FD0646002888
:1075B00073D000F0A1FE22464FF49A61304600F0ED
:1075C000CBFE0AA93A4801F8194DFDF755FF33687B
:1075D0009DF80F201B6A49F269013046984704A8BC
:1075E000FFF7F2FD04A8FFF70FFF00284ADB04A90C
:1075F000304600F01DFF002844DBBFF35F8F85F8A5
:10760000C841BFF35F8F2B49042001F0D9F905F57C
:10761000DE78074648B32749142001F0D1F928B194
:107620000474046044608460C46044743860B0B121
:10763000214B83603B682149DD6038684FF440632B
:107640008DE8090003221E4B0430FDF72DFE30B9F2
:107650003B681B7C4BB90120FDF776FEF8E73868E4
:1076600000233B6008B1FFF754FE39464046FFF760
:1076700081FFD5F8BC313BB128682E6030B1FFF7EF
:107680005EFE0CE0044603E00E4C01E0044607E019
:1076900036B13046FFF753FE02E00A4C00E000240A
:1076A000D5F8C001FDF738FE20460AB0BDE8F081EC
:1076B0004CA00D00CCA10D0059750D0050A00D007F
:1076C0007D720D00FCFEFFFF2DE9F04705468CB0F2
:1076D00016460F4609B10B780BB9354C64E00846E5
:1076E00002F0E1F98046002E5CD0304602F0DBF972
:1076F000441C08F102032344B3F59A6F4FD805F5F3
:10770000E070FFF7AFFD2846FFF742FF002840DB9F
:107710006846FFF759FD6846FFF776FE002838DB1C
:10772000D5F800A0DAF800300DF1040CD3F8389049
:10773000204B0693BCE80F000DF11C0EAEE80F00C5
:10774000DCF800308EF8003049F2690206A9504694
:10775000C84700281DDB002328688DF8183003680F
:107760000122DB6806A998472868036808F101022E
:10777000DB68394698472CB1286803682246DB68E5
:1077800031469847286803681B6C984700EAE07404
:1077900000E00446D5F8C001FDF7BEFD04E06FF03F
:1077A000BD0401E03446A4E720460CB0BDE8F087F4
:1077B000F2FEFFFF0C9F0D0038B50E4C0E4B236000
:1077C0000025022304F5E4706360A560C4F8C45189
:1077D000C4F8C851FDF790FD084BC4F8CC5184F8AB
:1077E000D05123602046064A0649BDE8384001F0E2
:1077F000D7B800BFD4E3032060A00D00FC9F0D00AC
:1078000030E3032085730D0000231A464068FDF71E
:10781000E3BF002202214068FDF7EEBF00221146BF
:107820004068FDF7E1BF002211464068FDF7ECBF5C
:1078300000231A4619464068FDF7EEBF00231A469A
:1078400019464068FDF7F0BF002281F00101406851
:10785000FDF7F2BF00224068FDF7FEBF002211468F
:107860004068FEF701B8002211464068FDF7ECBF02
:107870002DE9F043002495B016460D460746FFF764
:10788000A3FC214620220CA8009402F0B2F8402369
:107890000C9321466B460CAA3046FDF745FE044684
:1078A000002844D1024601216868FDF7ADFF02219E
:1078B000804622466868FDF7A7FF009E8146214664
:1078C000002E34D0002932D17368022B02D00A2B4B
:1078D00009D02AE0B8F1000F27D071693846043189
:1078E000FFF7B5FC20E0B9F1000F1ED0746911223A
:1078F00001A802F07EF806238DF8143001AD04F1E2
:1079000008031834186859682A4603C20833A3428A
:107910001546F7D101A906A807ADFFF763FC0FCD07
:107920003C1D0FC42B6823700121F669C8E700983D
:10793000FDF7F2FD384615B0BDE8F083024B034A6F
:107940001A6000225A607047A8E5032060A00D006D
:10795000F8B506460D468F180024BD420CD033689A
:1079600015F8011B9B6830469847002801DB04444A
:10797000F3E7002C08BF04462046F8BD70B5054665
:107980000C46084649B102F08EF82B6802462146A3
:107990002846DB68BDE87040184770BD08B5FFF7A2
:1079A000EDFF08BD03689B68184738B50D210546F3
:1079B000FFF7F8FF0A2104462846FFF7F3FF2044AB
:1079C00038BD30B58BB00B4600218DF82410012A4C
:1079D00098BF0A220DF12304B3FBF2F505FB123325
:1079E00003F0FF03092B94BF30333733DBB221465A
:1079F00004F801392B46002DEED1FFF7BFFF0BB085
:107A000030BD10B42AB903685DF8044B9B68C9B255
:107A10001847D2B25DF8044BFFF7D3BFFFF7F1BFB1
:107A200038B50546FFF7EDFF04462846FFF7BDFFD2
:107A3000204438BD2DE9F04107460E4615462AB9C7
:107A40000368C9B29B68BDE8F04118470A2A02D111
:107A5000002901DA04E0D2B2BDE8F041FFF7B1BF7E
:107A60002D21FFF79FFF2A46044671423846FFF753
:107A7000A8FF2044BDE8F08138B50546FFF7DAFFDE
:107A800004462846FFF791FF204438BD0CB42DE989
:107A9000F04387B000AF07F13804054654F8049B63
:107AA0003C600E4623464A461421381DFDF7FCFE75
:107AB000132805D8391D2846FFF760FF044613E058
:107AC00000F1080323F00703E846ADEB030D411C6A
:107AD00023464A4668463C60FDF7E6FE694628466E
:107AE000FFF74CFF0446C5461EB12846FFF75DFF71
:107AF000044420461C37BD46BDE8F04302B0704741
:107B000010B50446FEF7A3FF204610BD0348044A03
:107B100004490023836000F043BF00BFB0E50320A9
:107B200030E30320017B0D00704710B5102104469F
:107B300000F03BFF204610BD70B5084B03600446C3
:107B400000250E4640F80C5FFDF7CEFB304626714F
:107B5000FDF722FDA560204670BD00BF94A00D007A
:107B60000079FDF721BD00002DE9F14F59EC108B94
:107B700007460E460022002310EE100A494601F087
:107B8000A5FC28B109F1004399462D233370013635
:107B9000002301240A22D9B28F4202D9544301336F
:107BA000F9E7204601F0BAF942464B4601F01CFACB
:107BB00082468B4601F03AFD8046894601F0DEF9A7
:107BC00002460B465046594601F05AF80022174B20
:107BD00001F090FC18B118F1010849F10009E5170E
:107BE00022462B464046494601F008FD01230A2261
:107BF000314600F082FDAFB1304601F054FF2E2334
:107C000033540130064422462B464046494601F093
:107C1000F5FC3B46104631460A2201B0BDE8F04F64
:107C200000F06BBD01B0BDE8F08F00BF0000E03F89
:107C300010B504460068FDF727FE204610BD10B5BC
:107C40000446006808B1FDF71FFE00232360A3600F
:107C5000636010BD38B504460D4600680131FDF77C
:107C60001BFE10B184E82100012038BD10B5036867
:107C7000044613B143688B4207D22046FFF7EAFF60
:107C800020B1A3680BB922681370012010BD70B534
:107C90000E46114604461546FFF7E8FF18B9204680
:107CA000FFF7CDFF09E02A463146A560206801F0C4
:107CB0007AFE2268A3680021D154204670BD38B5F1
:107CC0000023044603604360836003730D4639B1AB
:107CD000084601F0E8FE294602462046FFF7D7FF96
:107CE000204638BD884210B50B46044607D00968C7
:107CF00019B19A68FFF7CBFF01E0FFF7A0FF20461C
:107D000010BD10B500230446036043608360037315
:107D1000FFF7E8FF204610BD38B505460C4641B1D7
:107D2000084601F0C0FE214602462846FFF7AFFF95
:107D300001E0FFF784FF284638BD10B50446002354
:107D40008AB023606360A3602373084601A900F032
:107D5000FCFC01A92046FFF7DFFF20460AB010BD5A
:107D600010B500238AB00446036043608360037348
:107D7000C8B201A9FFF7F8FE01A92046FFF7CCFF22
:107D800020460AB010BD0000044B00204FF6FF72E1
:107D9000187058809A80FDF797BC00BFC0E503209B
:107DA000024B1A68024B1A60704700BFC4E20320FE
:107DB000C8E5032010B40468246BA4465DF8044BA6
:107DC000604703689B6C1847808E7047028FC08E97
:107DD000101A704713B502AB026803F8011DD4688E
:107DE00019460122A04702B010BD10B503681B69F7
:107DF0000446984728B1E38EE26B591CE186D05CBB
:107E000010BD4FF0FF3010BD10B503681B6904466C
:107E1000984718B1E38EE26BD05C10BD4FF0FF3095
:107E200010BD704710B403460846DC6BD98E1A8F1C
:107E30000368521ADB6821445DF8044B1847A0F12F
:107E40001000FFF7EFBFF0B503688DB01C265B6A2A
:107E500004460F461546984701233246002105A8DF
:107E6000029301F0C6FD8DF8146038460A268DF89D
:107E70001560FDF749FB1122ADF8160002213046CE
:107E8000FDF782FB0028606124DB0422009202AB34
:107E900040F6FF71FDF758FBE0B995B10390ADF8DE
:107EA000100003A9E8B2FDF7EFFA98B90623009392
:107EB00041F20B0203AB40F6FF716069FDF744FB32
:107EC00040B91C2205A96069FDF736FB10B965644D
:107ED000012004E0236820465B6A984700200DB02B
:107EE000F0BD10B504464069002801DBFDF734FB06
:107EF0004FF0FF3363610023E386238710BD38B55D
:107F0000C36B0546C08E13B12C6C241A00E01C46CE
:107F1000944228BF14462246184401F044FDEB8EDB
:107F20002344EB86204638BD70B503681B690446C0
:107F30000E461546984788B1236820461B69984726
:107F4000E38EE16B8542A8BF054619442A463046B8
:107F500001F029FDE38E2B44E38601E04FF0FF356D
:107F6000284670BD70B50446054B44F8043B01F14A
:107F7000200506460FCD0FC42B682370304670BD18
:107F80000C9F0D00F0B59446026889B0976A0A4AC2
:107F900002921D1D8E4606460FCD03AC0FC42B6802
:107FA0002370BDF838300093624602AB714630460C
:107FB000B84709B0F0BD00BF0C9F0D00F0B50368D5
:107FC000B0F836E09F6A0D4B89B000F120060446F8
:107FD00002930FCE03AD0FC533682B70A38E0093B1
:107FE000724602ABE16B2046B84723680546DB6961
:107FF00020469847284609B0F0BD00BF0C9F0D00F1
:10800000F0B54378022B8DB005460C46174601D1DA
:10801000011D33E00A2B35D11122002101A801F006
:10802000E8FCAB6843B9EB6833B94FF6FF702E69D3
:10803000FDF75AFA86421FD005F1080301AE05F19B
:10804000180E18685968324603C20833734516463D
:10805000F7D1062301A906A807AE8DF81430FFF763
:10806000C1F80FCE04340FC43368237057B1688849
:10807000FDF742FA388005E005F114012046FFF7CC
:10808000E6F8F3E70DB0F0BD2DE9F0418EB00EAB90
:10809000002506461746084643F8345D2A46294619
:1080A000FDF742FA00281FDB019BFBB15B69EBB1D6
:1080B00002A8FFF789F8019B2A46586902A9FFF731
:1080C0009FFF02A8FFF7A0F880B1336803ADD3F893
:1080D00038800B4B08930FCD09AC0FC42B6823706D
:1080E0003A4608A93046C047044601E04FF0FF3445
:1080F0000198FDF711FA20460EB0BDE8F08100BFEF
:108100000C9F0D002DE9F047D0F81480B8F1000F56
:108110008CB005460C461746994600DB11B94FF066
:10812000FF3035E04FF01C0A05AE524600213046C4
:1081300001F05FFCCDF808A0B9F1000F14D04FF4A6
:108140007A72B9FBF2F1039102FB11914A430823C1
:108150000492009341F2060203AB40F6FF714046E1
:10816000FDF7F2F908B113E0082002AB01932146B4
:10817000034600963A466869FDF7F6F9041E06DBE9
:1081800005F1340205F11C013046FFF739FF2046A6
:108190000CB0BDE8F08738B5054614462B7D062B9C
:1081A000084611D11C2313700A235370FDF7ACF954
:1081B000083424F8060C2B1D143553F8042B44F80E
:1081C000042BAB42F9D138BD042B0AD11023137014
:1081D00002235370FDF798F960806868FDF784F911
:1081E000606038BD2DE9F0438BB003AC1C25994687
:1081F00006460F46904600212A46204601F0F9FB2C
:108200002246BDF848104846FFF7C5FF9DF80D30DF
:1082100043B18DE830000023424639467069FDF7CE
:10822000ABF901E04FF0FF300BB0BDE8F083F0B5E3
:1082300091B00C4606460021154609A81C221F468F
:1082400001F0D7FB09AA00212046FFF7A4FF9DF803
:108250002530022B2ED1002305930A9B0493DDB118
:1082600002A92846FDF718F9B0B910A941F8340D54
:108270000298FDF719F960B9039B53B1DA681268E7
:108280005178022903D152680AB1059201E01B68B6
:10829000F3E70398FDF710F9002F4FF00803009360
:1082A00018BF032204AB08BF042200213046FDF7AB
:1082B0004BF91EE00A2B1AD104AC142200212046EF
:1082C00001F097FB0BAB0FCB002F84E80F004FF0B2
:1082D0001403009318BF0C22234608BF0D22292146
:1082E00030460895FDF730F900EAE07001E04FF004
:1082F000FF3011B0F0BD000038B54FF47A738360E1
:108300000B4B03F108026C33002503614FF0FF3380
:1083100004464560026043611C30FEF755FF4FF490
:108320000073E5862587E56323646564204638BDD0
:10833000C8A00D0010B590F84830044623B1C06BBA
:1083400010B1012100F031FB0023E36384F84830D1
:108350002364E386238710BD70B5044616460D4698
:10836000FFF7E8FF0023E66323643EB935B12846F2
:10837000FBF795FE0123E06384F84830E36B03B11B
:108380002564206C003018BF012070BDF8B5174679
:10839000C26B05460C461AB9016C09B1FFF7DCFF48
:1083A00004340FCC05F120060FC623683370002378
:1083B000AF86EB862B87286CF8BD70B5C26B044680
:1083C0000E461AB9016C09B1FFF7C6FFE16B002236
:1083D000E286228749B1226C3AB1236820461D6BA0
:1083E0003346A8470028C8BF2087236820461B695A
:1083F000BDE870401847000010B5074B03F10802B4
:108400006C33044602600361FFF76BFD2046FFF703
:1084100091FF204610BD00BFC8A00D0010B5044656
:10842000FFF7EAFF20464C2100F0BFFA204610BDBE
:1084300002464069002804DB012392F84420FFF73C
:10844000F6BE4FF0FF30704770474174704708B573
:10845000007CFDF7E9F820EAE07008BD08B5007C73
:10846000FDF7BAF820EAE07008BD08B5007CFDF71A
:10847000C3F830EA200028BF4FF0FF3008BD08B530
:10848000007CFDF7B1F830EA200028BF4FF0FF3044
:1084900008BD007CFDF7B8B810B51421044600F003
:1084A00084FA204610BD70B5457C04460E4625B9B9
:1084B000007CFDF7B9F8002805DD3146207CBDE8D9
:1084C0007040FDF781B8284670BD000010B5044625
:1084D00008461146002262604FF47A72A260054A93
:1084E00022600122207462741A46FDF765F8204666
:1084F00010BD00BF40A10D00007CFDF78DB800004D
:1085000038B50C4D296811F0010411D12846FBF74C
:10851000CCFD68B1084A094B09482146FFF7D6FF50
:108520002846FBF7C7FD074A0749054800F038FA17
:10853000034838BD64E6032068E60320E0E5032035
:10854000CCE5032030E3032049840D0041747047DB
:10855000704708B50021007CFDF78EF830EA200056
:1085600028BF4FF0FF3008BD08B50121007CFDF7A2
:1085700083F830EA200028BF4FF0FF3008BD08B56F
:10858000007CFDF771F820EAE07008BD08B5007CBA
:10859000FDF762F820EAE07008BD007CFDF77CB8CA
:1085A00010B51421044600F000FA204610BD38B57D
:1085B0000446007C0D46FDF757F8002801DC607C7E
:1085C00028B12946207CFDF75FF820EAE07038BD2D
:1085D00010B50446002363604FF47A73A360054B23
:1085E000236001230846217463741146FDF724F8C3
:1085F000204610BD70A10D000022007CFDF724B8BC
:1086000010B514220446002101F0F3F9204610BDF4
:1086100030B50E4D87B001A8FFF7F2FF296811F0C1
:10862000010410D12846FBF740FD60B101AA2146A4
:108630000748FFF7CDFF2846FBF73CFD054A0649F2
:10864000034800F0ADF9024807B030BDECE6032066
:10865000F0E6032030E3032051850D00002211468F
:108660004068FDF7D1B8002211464068FDF7ECB82C
:10867000002211464068FDF7F7B800224068FDF778
:10868000EBB8002281F001014068FDF7D5B8002366
:108690001A4619464068FDF7C7B800231A4619461E
:1086A0004068FDF7B9B8002211464068FDF79CB854
:1086B000002202214068FDF79FB800231A46406857
:1086C000FDF78AB8024B04225A60024A1A607047CA
:1086D00004E70320A0A10D0010B5044601F0E3F962
:1086E000013823182046984206D20278197800F8FB
:1086F000011B03F80129F6E710BD70B50C46911E69
:10870000222920D82546294610B9234430220EE0DC
:10871000B0FBF2F602FB1600C1B205F8011B0928F6
:1087200094BF3031573105F8011C3046EBE79942D0
:1087300002D201F8012BFAE7002320460B70FFF765
:10874000CBFF204670BD002070BD38B5031E0C461F
:1087500015460BDAB3F1004F4FF02D0214BF58420B
:10876000184601230A702A46194400E00123FFF746
:10877000C4FF204638BD000008B50C4B33B1FFF7ED
:1087800047FF03681B699847002809DC084B63B161
:10879000FFF7B6FE03681B699847002803DC08BD95
:1087A000AFF30080F2E7AFF3008008BD00000000E7
:1087B0000000000008B5FFF7DFFFFCF7D5FD014B17
:1087C000186008BD10E7032007B5002300931A4680
:1087D0006FF07701FCF7BCFF03B05DF804FB00000D
:1087E00007B543880A2B08D0502B09D1094B1B68C9
:1087F0003BB103B05DF804EB1847FFF7E5FF06E077
:10880000002300931A466FF07701FCF7A1FF03B035
:108810005DF804FB0CE7032010B5FCF78DFD044662
:1088200001F0FEF8074B13B12046AFF300800021A2
:108830000448FCF7C1FF00210348BDE81040FCF7E5
:108840007DBF00BF00000000E1870D0010B50446A9
:108850000F48FFF785F928B1A4F10B03022B01D8CB
:10886000002010BD00F05AF8FEF76CFC08B1012C96
:10887000F6D9FFF745FEFFF73FFE18B1A4F1090353
:10888000012BEDD9232C8CBF0020012010BD00BF8F
:1088900030E70320232838B504460D460AD8FF29BF
:1088A00008D0FFF7D3FF28B129462046BDE838405D
:1088B000FCF772BD38BD38B504460D46FCF774FDB3
:1088C000FF2810D0062804D84D2323FA00F0C30750
:1088D00009D42046FFF7BAFF28B129462046BDE853
:1088E0003840FCF769BD38BD0D2810B504469CBF63
:1088F0000E34A4B22046FFF7A9FF50B10321204651
:10890000FCF742FD032804D12046BDE81040FCF7E7
:108910006BBD002010BDFCF76FBD000038B50B4DDE
:10892000296811F001040FD12846FBF7BEFB58B1AE
:1089300021460748FEF7F4FB2846FBF7BBFB054A38
:108940000549034800F02CF8014838BD18E703201A
:108950001CE7032030E30320C9700D0070B50C4CF8
:108960000C4E0D4D00212046FFF7E6F820460B4C3B
:108970003246294600F014F801212046FFF7DCF8C2
:10898000324629462046BDE8704000F009B800BFD5
:1089900030E7032030E30320297B0D0040E703206C
:1089A0000B460146184600F0E1BFFBF77ABB00001A
:1089B000024B1868BFF35F8F704700BF50E703207A
:1089C00010B5002814BF044601242046FCF754FFCC
:1089D00020B9FFF7EDFF08B18047F6E710BDFFF7BC
:1089E000EFBF08B5FCF768FF244B1A68D0075CBFDF
:1089F00001221A60224B1A68D1075CBF01221A605B
:108A0000204B1A68D2075CBF01221A601E4B1A68FD
:108A1000D0075CBF01221A601C4B1A68D1075CBFEB
:108A200001221A601A4B1A68D2075CBF01221A6031
:108A3000184B1A68D0075CBF01221A60164B1A68DF
:108A4000D1075CBF01221A60144B1A68D2075CBFC1
:108A500001221A60124B1A68D0075CBF01221A600B
:108A6000104B1A68D1075CBF01221A600E4B1A68BE
:108A7000D2075CBF01221A60704700BF80E7032065
:108A80007CE7032078E7032074E7032070E70320E6
:108A90006CE7032068E7032064E7032060E7032016
:108AA0005CE7032058E7032054E70320184B1A68BB
:108AB000D1075CBF01221A60164B1A68D2075CBF4F
:108AC00001221A60144B1A68D0075CBF01221A6099
:108AD000124B1A68D1075CBF01221A60104B1A684A
:108AE000D2075CBF01221A600E4B1A68D0075CBF28
:108AF00001221A600C4B1A68D1075CBF01221A6070
:108B00000A4B1A68D2075CBF01221A60704700BF87
:108B1000A0E703209CE7032098E7032094E70320C5
:108B200090E703208CE7032088E7032084E70320F5
:108B3000184B1A68D1075CBF01221A60164B1A68DD
:108B4000D2075CBF01221A60144B1A68D0075CBFC1
:108B500001221A60124B1A68D1075CBF01221A6009
:108B6000104B1A68D2075CBF01221A600E4B1A68BC
:108B7000D0075CBF01221A600C4B1A68D1075CBF9A
:108B800001221A600A4B1A68D2075CBF01221A60E0
:108B9000704700BFC0E70320BCE70320B8E703200D
:108BA000B4E70320B0E70320ACE70320A8E70320E5
:108BB000A4E70320244B1A68D0075CBF01221A6087
:108BC000224B1A68D1075CBF01221A60204B1A6839
:108BD000D2075CBF01221A601E4B1A68D0075CBF27
:108BE00001221A601C4B1A68D1075CBF01221A606F
:108BF0001A4B1A68D2075CBF01221A60184B1A6818
:108C0000D0075CBF01221A60164B1A68D1075CBFFF
:108C100001221A60144B1A68D2075CBF01221A6045
:108C2000124B1A68D0075CBF01221A60104B1A68F9
:108C3000D1075CBF01221A600E4B1A68D2075CBFD5
:108C400001221A60704700BFF0E70320ECE7032021
:108C5000E8E70320E4E70320E0E70320DCE7032064
:108C6000D8E70320D4E70320D0E70320CCE7032094
:108C7000C8E70320C4E7032081F0004102E000BF01
:108C800083F0004330B54FEA41044FEA430594EACC
:108C9000050F08BF90EA020F1FBF54EA000C55EA07
:108CA000020C7FEA645C7FEA655C00F0E2804FEAD8
:108CB0005454D4EB5555B8BF6D420CDD2C4480EABA
:108CC000020281EA030382EA000083EA010180EAEA
:108CD000020281EA0303362D88BF30BD11F0004F38
:108CE0004FEA01314FF4801C4CEA113102D040426E
:108CF00061EB410113F0004F4FEA03334CEA1333A9
:108D000002D0524263EB430394EA050F00F0A780C0
:108D1000A4F10104D5F1200E0DDB02FA0EFC22FABB
:108D200005F2801841F1000103FA0EF2801843FAAF
:108D300005F359410EE0A5F120050EF1200E012AA0
:108D400003FA0EFC28BF4CF0020C43FA05F3C018DE
:108D500051EBE37101F0004507D54FF0000EDCF157
:108D6000000C7EEB00006EEB0101B1F5801F1BD300
:108D7000B1F5001F0CD349085FEA30004FEA3C0C04
:108D800004F101044FEA445212F5800F80F09A80FA
:108D9000BCF1004F08BF5FEA500C50F1000041EBFE
:108DA000045141EA050130BD5FEA4C0C404141EB02
:108DB000010111F4801FA4F10104E9D191F0000F29
:108DC00004BF01460020B1FA81F308BF2033A3F1AC
:108DD0000B03B3F120020CDA0C3208DD02F1140CA3
:108DE000C2F10C0201FA0CF021FA02F10CE002F1DE
:108DF0001402D8BFC2F1200C01FA02F120FA0CFCD7
:108E0000DCBF41EA0C019040E41AA2BF01EB04511F
:108E1000294330BD6FEA04041F3C1CDA0C340EDC1D
:108E200004F11404C4F1200220FA04F001FA02F360
:108E300040EA030021FA04F345EA030130BDC4F11E
:108E40000C04C4F1200220FA02F001FA04F340EA13
:108E50000300294630BD21FA04F0294630BD94F0C4
:108E6000000F83F4801306BF81F480110134013DAB
:108E70004EE77FEA645C18BF7FEA655C29D094EA1C
:108E8000050F08BF90EA020F05D054EA000C04BF9A
:108E90001946104630BD91EA030F1EBF0021002085
:108EA00030BD5FEA545C05D14000494128BF41F024
:108EB000004130BD14F580043CBF01F5801130BD88
:108EC00001F0004545F0FE4141F470014FF0000013
:108ED00030BD7FEA645C1ABF194610467FEA655CC4
:108EE0001CBF0B46024650EA013406BF52EA033566
:108EF00091EA030F41F4002130BD00BF90F0000F54
:108F000004BF0021704730B54FF4806404F132048F
:108F10004FF000054FF0000150E700BF90F0000F48
:108F200004BF0021704730B54FF4806404F132046F
:108F300010F0004548BF40424FF000013EE700BF3F
:108F400042004FEAE2014FEA31014FEA02701FBFCF
:108F500012F07F4393F07F4F81F06051704792F0A1
:108F6000000F14BF93F07F4F704730B54FF460741B
:108F700001F0004521F0004120E700BF50EA010266
:108F800008BF704730B54FF000050AE050EA010213
:108F900008BF704730B511F0004502D5404261EB83
:108FA00041014FF4806404F132045FEA915C3FF4C4
:108FB000DCAE4FF003025FEADC0C18BF03325FEA5D
:108FC000DC0C18BF033202EBDC02C2F1200300FA12
:108FD00003FC20FA02F001FA03FE40EA0E0021FA37
:108FE00002F11444C1E600BF70B54FF0FF0C4CF421
:108FF000E06C1CEA11541DBF1CEA135594EA0C0FD7
:1090000095EA0C0F00F0DEF82C4481EA030621EA11
:109010004C5123EA4C5350EA013518BF52EA03354C
:1090200041F4801143F4801338D0A0FB02CE4FF0FE
:109030000005E1FB02E506F00042E0FB03E54FF02E
:109040000006E1FB03569CF0000F18BF4EF0010E26
:10905000A4F1FF04B6F5007F64F5407404D25FEA22
:109060004E0E6D4146EB060642EAC62141EA5551D5
:109070004FEAC52040EA5E504FEACE2EB4F1FD0C17
:1090800088BFBCF5E06F1ED8BEF1004F08BF5FEA95
:10909000500E50F1000041EB045170BD06F0004647
:1090A00046EA010140EA020081EA0301B4EB5C04F4
:1090B000C2BFD4EB0C0541EA045170BD41F48011EC
:1090C0004FF0000E013C00F3AB8014F1360FDEBF11
:1090D000002001F0004170BDC4F10004203C35DAED
:1090E0000C341BDC04F11404C4F1200500FA05F370
:1090F00020FA04F001FA05F240EA020001F0004211
:1091000021F0004110EBD37021FA04F642EB060186
:109110005EEA430E08BF20EAD37070BDC4F10C04B0
:10912000C4F1200500FA04F320FA05F001FA04F274
:1091300040EA020001F0004110EBD37041F1000160
:109140005EEA430E08BF20EAD37070BDC4F120056B
:1091500000FA05F24EEA020E20FA04F301FA05F2D3
:1091600043EA020321FA04F001F0004121FA04F27B
:1091700020EA020000EBD3705EEA430E08BF20EA4B
:10918000D37070BD94F0000F0FD101F00046400085
:1091900041EB010111F4801F08BF013CF7D041EA07
:1091A000060195F0000F18BF704703F0004652000B
:1091B00043EB030313F4801F08BF013DF7D043EADC
:1091C0000603704794EA0C0F0CEA135518BF95EA92
:1091D0000C0F0CD050EA410618BF52EA4306D1D119
:1091E00081EA030101F000414FF0000070BD50EA38
:1091F000410606BF1046194652EA430619D094EAC2
:109200000C0F02D150EA013613D195EA0C0F05D1AB
:1092100052EA03361CBF104619460AD181EA0301FF
:1092200001F0004141F0FE4141F470014FF00000B7
:1092300070BD41F0FE4141F4780170BD70B54FF052
:10924000FF0C4CF4E06C1CEA11541DBF1CEA1355D2
:1092500094EA0C0F95EA0C0F00F0A7F8A4EB0504B4
:1092600081EA030E52EA03354FEA013100F08880AB
:109270004FEA03334FF0805545EA131343EA126374
:109280004FEA022245EA111545EA10654FEA002629
:109290000EF000419D4208BF964244F1FD0404F5E2
:1092A000407402D25B084FEA3202B61A65EB03053E
:1092B0005B084FEA32024FF480104FF4002CB6EBFB
:1092C000020E75EB030E22BFB61A754640EA0C007B
:1092D0005B084FEA3202B6EB020E75EB030E22BFBB
:1092E000B61A754640EA5C005B084FEA3202B6EBFC
:1092F000020E75EB030E22BFB61A754640EA9C00BB
:109300005B084FEA3202B6EB020E75EB030E22BF8A
:10931000B61A754640EADC0055EA060E18D04FEA48
:10932000051545EA16754FEA06164FEAC30343EAE8
:1093300052734FEAC2025FEA1C1CC0D111F4801FB5
:109340000BD141EA00014FF000004FF0004CB6E7AE
:1093500011F4801F04BF01430020B4F1FD0C88BF4D
:10936000BCF5E06F3FF6AFAEB5EB030C04BFB6EB58
:10937000020C5FEA500C50F1000041EB045170BD4B
:109380000EF0004E4EEA113114EB5C04C2BFD4EB78
:109390000C0541EA045170BD41F480114FF0000EFC
:1093A000013C90E645EA060E8DE60CEA135594EA78
:1093B0000C0F08BF95EA0C0F3FF43BAF94EA0C0F7B
:1093C0000AD150EA01347FF434AF95EA0C0F7FF4F0
:1093D00025AF104619462CE795EA0C0F06D152EA44
:1093E00003353FF4FDAE1046194622E750EA410628
:1093F00018BF52EA43067FF4C5AE50EA41047FF439
:109400000DAF52EA43057FF4EBAE12E74FF0FF3C9D
:1094100006E000BF4FF0010C02E000BF4FF0010C6E
:109420004DF804CD4FEA410C7FEA6C5C4FEA430CE7
:1094300018BF7FEA6C5C1BD001B050EA410C0CBF36
:1094400052EA430C91EA030F02BF90EA020F002098
:10945000704710F1000F91EA030F58BF994208BFFF
:1094600090422CBFD8176FEAE37040F001007047BC
:109470004FEA410C7FEA6C5C02D150EA013C07D113
:109480004FEA430C7FEA6C5CD6D152EA033CD3D05E
:109490005DF8040B704700BF8446104662468C4658
:1094A0001946634600E000BF01B5FFF7B7FF00288B
:1094B00048BF10F1000F01BD4DF808EDFFF7F4FFB4
:1094C0000CBF012000205DF808FB00BF4DF808ED3F
:1094D000FFF7EAFF34BF012000205DF808FB00BF62
:1094E0004DF808EDFFF7E0FF94BF012000205DF884
:1094F00008FB00BF4DF808EDFFF7CEFF94BF012039
:1095000000205DF808FB00BF4DF808EDFFF7C4FF31
:1095100034BF012000205DF808FB00BF4A0011D2D3
:1095200012F5001211D20DD56FF47873B3EB6252BD
:109530000ED44FEAC12343F0004343EA505323FAC9
:1095400002F070474FF00000704750EA013002D13E
:109550004FF0FF3070474FF0000070474FEA410274
:10956000B2F1E04324BFB3F5001CDCF1FE5C0DD981
:1095700001F0004C4FEAC0024CEA5070B2F1004FCB
:1095800040EB830008BF20F00100704711F0804FCE
:1095900021D113F13872BCBF01F00040704741F493
:1095A00080114FEA5252C2F11802C2F1200C10FA97
:1095B0000CF320FA02F018BF40F001004FEAC1237B
:1095C0004FEAD32303FA0CFC40EA0C0023FA02F31F
:1095D0004FEA4303CCE77FEA625307D150EA0133F5
:1095E0001EBF4FF0FE4040F44000704701F00040C5
:1095F00040F0FE4040F40000704700BF53B94AB944
:10960000002908BF00281CBF4FF0FF314FF0FF308A
:1096100000F0A2B9ADF1080C6DE904CE00F02AF813
:10962000DDF804E0DDE9022304B07047D0B5002284
:109630000E4B06460F46FFF7D7FCFFF76FFF0446B9
:10964000FFF75CFC00220A4BFFF7CEFC02460B46FC
:1096500030463946FFF714FBFFF760FF2346002230
:1096600042EA000210461946D0BD00BF0000F03D9E
:109670000000F0412DE9F0478C460E460446089D57
:10968000002B50D18A4217466CD9B2FA82FEBEF145
:10969000000F0BD0CEF1200420FA04F401FA0EF6EC
:1096A00044EA060C02FA0EF700FA0EF44FEA1749E4
:1096B000220CBCFBF9F01FFA87F809FB10C642EA3E
:1096C000064600FB08F3B34209D9F61900F1FF3250
:1096D00080F02281B34240F21F8102383E44F61AE4
:1096E000A2B2B6FBF9F309FB136642EA064403FB98
:1096F00008F8A04509D9E41903F1FF3280F00A8186
:10970000A04540F20781023B3C44C8EB040443EA15
:1097100000400021002D62D024FA0EF400232C60BA
:109720006B60BDE8F0878B4207D9002D55D0002132
:1097300085E841000846BDE8F087B3FA83F10029C7
:1097400040F09080B34202D3824200F2F880841A43
:1097500066EB03060120B446002D40D085E81010CA
:10976000BDE8F08712B90127B7FBF2F7B7FA87FE19
:10977000BEF1000F35D1F31B4FEA17481FFA87FCE3
:109780000121B3FBF8F0220C08FB103642EA064632
:109790000CFB00F3B34207D9F61900F1FF3202D2F5
:1097A000B34200F2CE801046F61AA2B2B6FBF8F32E
:1097B00008FB136642EA06440CFB03FCA44507D9E8
:1097C000E41903F1FF3202D2A44500F2B58013463A
:1097D000CCEB040443EA00409CE729462846BDE858
:1097E000F087CEF1200106FA0EF307FA0EF720FA01
:1097F00001F94FEA1748CE4049EA0309B6FBF8FAE7
:109800004FEA194408FB1A661FFA87FC44EA06432C
:109810000AFB0CF29A4200FA0EF40AD9DB190AF19B
:10982000FF3180F087809A4240F28480AAF1020AD8
:109830003B449B1A1FFA89F9B3FBF8F108FB11337B
:1098400049EA034301FB0CF69E4207D9DB1901F1FB
:10985000FF326BD29E4269D902393B449B1B41EADD
:109860000A418EE7C1F1200E22FA0EF48B40234309
:1098700020FA0EF706FA01F44FEA134C26FA0EF618
:109880003C43B6FBFCF9270C0CFB19661FFA83F866
:1098900047EA064609FB08F7B74202FA01F200FA66
:1098A00001FA08D9F61809F1FF3041D2B7423FD981
:1098B000A9F102091E44F61BA0B2B6FBFCF40CFB96
:1098C000146640EA064704FB08F8B84507D9FF18B4
:1098D00004F1FF3028D2B84526D9023C1F4444EA9F
:1098E0000940C8EB0707A0FB02894F4544464E4696
:1098F00014D329D065B3BAEB040367EB060707FA64
:109900000EFECB40CF404EEA030385E888000021DD
:10991000BDE8F0871346F8E61046E0E6B8EB02042F
:1099200069EB03060138E5E70446D8E7114695E7F9
:109930008146C0E78A467CE7023B3C4448E708464C
:109940000AE702383E442FE7C245E7D33E46D1E757
:109950002946BDE8F08700BF704700BF024B0A46AA
:109960000146186800F04DB828E3032010B5054CF7
:1099700013462CB10A4601460220AFF3008010BD09
:10998000204610BD0000000010B50139024490428D
:1099900007D010F8013B11F8014FA342F7D0181B74
:1099A00010BD002010BD10B5431E0A44914204D0E2
:1099B00011F8014B03F8014FF8E710BD884210B5CC
:1099C00001EB020301D8421E0BE09842FBD2811842
:1099D000D21AD34204D013F8014D01F8014DF8E733
:1099E00010BD994204D011F8014B02F8014FF8E77D
:1099F00010BD02440346934202D003F8011BFAE76C
:109A0000704738B502FB01F42146FBF75DFF0546C0
:109A100018B122460021FFF7ECFF284638BD0000B0
:109A200038B5124B1C68A36B0546D3B91820FBF759
:109A300023FF43F20E33A06303804AF6CD33438005
:109A400041F2342383804EF26D63C3804DF6EC63A4
:109A50000381052343810B23838101220023C0E975
:109A60000423A36B00221D615A6138BD28E3032043
:109A7000024B0146186800F003B800BF28E303203A
:109A800070B5064608460C4600F00DF8451C294600
:109A90003046FBF719FF064618B12A462146FFF764
:109AA00082FF304670BD034613F8012B002AFBD11C
:109AB000181A0138704710B5034601448B4204D090
:109AC0001A785C1C0AB12346F8E7181A10BD00008A
:109AD00021400D005D400D0089400D008D400D00BE
